{"abi":[{"type":"function","name":"CODESEP_POS","inputs":[],"outputs":[{"name":"","type":"bytes","internalType":"bytes"}],"stateMutability":"view"},{"type":"function","name":"EPOCH","inputs":[],"outputs":[{"name":"","type":"bytes","internalType":"bytes"}],"stateMutability":"view"},{"type":"function","name":"INPUT_INDEX","inputs":[],"outputs":[{"name":"","type":"bytes","internalType":"bytes"}],"stateMutability":"view"},{"type":"function","name":"KEY_VERSION","inputs":[],"outputs":[{"name":"","type":"bytes","internalType":"bytes"}],"stateMutability":"view"},{"type":"function","name":"LIGHT_CLIENT","inputs":[],"outputs":[{"name":"","type":"address","internalType":"contract BitcoinLightClient"}],"stateMutability":"view"},{"type":"function","name":"PAYOUT_ANCHOR_OUTPUT_AMOUNT","inputs":[],"outputs":[{"name":"","type":"uint256","internalType":"uint256"}],"stateMutability":"view"},{"type":"function","name":"SAT_TO_WEI","inputs":[],"outputs":[{"name":"","type":"uint256","internalType":"uint256"}],"stateMutability":"view"},{"type":"function","name":"SCHNORR_VERIFIER_PRECOMPILE","inputs":[],"outputs":[{"name":"","type":"address","internalType":"address"}],"stateMutability":"view"},{"type":"function","name":"SIGHASH_DEFAULT_HASH_TYPE","inputs":[],"outputs":[{"name":"","type":"bytes","internalType":"bytes"}],"stateMutability":"view"},{"type":"function","name":"SIGHASH_SINGLE_ANYONECANPAY_HASH_TYPE","inputs":[],"outputs":[{"name":"","type":"bytes","internalType":"bytes"}],"stateMutability":"view"},{"type":"function","name":"SPEND_TYPE_EXT","inputs":[],"outputs":[{"name":"","type":"bytes","internalType":"bytes"}],"stateMutability":"view"},{"type":"function","name":"SPEND_TYPE_NO_EXT","inputs":[],"outputs":[{"name":"","type":"bytes","internalType":"bytes"}],"stateMutability":"view"},{"type":"function","name":"SYSTEM_CALLER","inputs":[],"outputs":[{"name":"","type":"address","internalType":"address"}],"stateMutability":"view"},{"type":"function","name":"acceptOwnership","inputs":[],"outputs":[],"stateMutability":"nonpayable"},{"type":"function","name":"batchWithdraw","inputs":[{"name":"txIds","type":"bytes32[]","internalType":"bytes32[]"},{"name":"outputIds","type":"bytes4[]","internalType":"bytes4[]"}],"outputs":[],"stateMutability":"payable"},{"type":"function","name":"deposit","inputs":[{"name":"moveTx","type":"tuple","internalType":"struct Bridge.Transaction","components":[{"name":"version","type":"bytes4","internalType":"bytes4"},{"name":"flag","type":"bytes2","internalType":"bytes2"},{"name":"vin","type":"bytes","internalType":"bytes"},{"name":"vout","type":"bytes","internalType":"bytes"},{"name":"witness","type":"bytes","internalType":"bytes"},{"name":"locktime","type":"bytes4","internalType":"bytes4"}]},{"name":"proof","type":"tuple","internalType":"struct Bridge.MerkleProof","components":[{"name":"intermediateNodes","type":"bytes","internalType":"bytes"},{"name":"blockHeight","type":"uint256","internalType":"uint256"},{"name":"index","type":"uint256","internalType":"uint256"}]},{"name":"shaScriptPubkeys","type":"bytes32","internalType":"bytes32"}],"outputs":[],"stateMutability":"nonpayable"},{"type":"function","name":"depositAmount","inputs":[],"outputs":[{"name":"","type":"uint256","internalType":"uint256"}],"stateMutability":"view"},{"type":"function","name":"depositPrefix","inputs":[],"outputs":[{"name":"","type":"bytes","internalType":"bytes"}],"stateMutability":"view"},{"type":"function","name":"depositSuffix","inputs":[],"outputs":[{"name":"","type":"bytes","internalType":"bytes"}],"stateMutability":"view"},{"type":"function","name":"depositTxIds","inputs":[{"name":"","type":"uint256","internalType":"uint256"}],"outputs":[{"name":"","type":"bytes32","internalType":"bytes32"}],"stateMutability":"view"},{"type":"function","name":"failedDepositVault","inputs":[],"outputs":[{"name":"","type":"address","internalType":"address"}],"stateMutability":"view"},{"type":"function","name":"getAggregatedKey","inputs":[],"outputs":[{"name":"","type":"bytes","internalType":"bytes"}],"stateMutability":"view"},{"type":"function","name":"getWithdrawalCount","inputs":[],"outputs":[{"name":"","type":"uint256","internalType":"uint256"}],"stateMutability":"view"},{"type":"function","name":"initialize","inputs":[{"name":"_depositPrefix","type":"bytes","internalType":"bytes"},{"name":"_depositSuffix","type":"bytes","internalType":"bytes"},{"name":"_depositAmount","type":"uint256","internalType":"uint256"}],"outputs":[],"stateMutability":"nonpayable"},{"type":"function","name":"initialized","inputs":[],"outputs":[{"name":"","type":"bool","internalType":"bool"}],"stateMutability":"view"},{"type":"function","name":"operator","inputs":[],"outputs":[{"name":"","type":"address","internalType":"address"}],"stateMutability":"view"},{"type":"function","name":"optimisticWithdrawAmount","inputs":[],"outputs":[{"name":"","type":"uint256","internalType":"uint256"}],"stateMutability":"view"},{"type":"function","name":"owner","inputs":[],"outputs":[{"name":"","type":"address","internalType":"address"}],"stateMutability":"view"},{"type":"function","name":"pause","inputs":[],"outputs":[],"stateMutability":"nonpayable"},{"type":"function","name":"paused","inputs":[],"outputs":[{"name":"","type":"bool","internalType":"bool"}],"stateMutability":"view"},{"type":"function","name":"pendingOwner","inputs":[],"outputs":[{"name":"","type":"address","internalType":"address"}],"stateMutability":"view"},{"type":"function","name":"processedTxIds","inputs":[{"name":"","type":"bytes32","internalType":"bytes32"}],"outputs":[{"name":"","type":"bool","internalType":"bool"}],"stateMutability":"view"},{"type":"function","name":"renounceOwnership","inputs":[],"outputs":[],"stateMutability":"nonpayable"},{"type":"function","name":"replaceDeposit","inputs":[{"name":"replaceTx","type":"tuple","internalType":"struct Bridge.Transaction","components":[{"name":"version","type":"bytes4","internalType":"bytes4"},{"name":"flag","type":"bytes2","internalType":"bytes2"},{"name":"vin","type":"bytes","internalType":"bytes"},{"name":"vout","type":"bytes","internalType":"bytes"},{"name":"witness","type":"bytes","internalType":"bytes"},{"name":"locktime","type":"bytes4","internalType":"bytes4"}]},{"name":"proof","type":"tuple","internalType":"struct Bridge.MerkleProof","components":[{"name":"intermediateNodes","type":"bytes","internalType":"bytes"},{"name":"blockHeight","type":"uint256","internalType":"uint256"},{"name":"index","type":"uint256","internalType":"uint256"}]},{"name":"idToReplace","type":"uint256","internalType":"uint256"},{"name":"shaScriptPubkeys","type":"bytes32","internalType":"bytes32"}],"outputs":[],"stateMutability":"nonpayable"},{"type":"function","name":"replacePrefix","inputs":[],"outputs":[{"name":"","type":"bytes","internalType":"bytes"}],"stateMutability":"view"},{"type":"function","name":"replaceSuffix","inputs":[],"outputs":[{"name":"","type":"bytes","internalType":"bytes"}],"stateMutability":"view"},{"type":"function","name":"safeWithdraw","inputs":[{"name":"prepareTx","type":"tuple","internalType":"struct Bridge.Transaction","components":[{"name":"version","type":"bytes4","internalType":"bytes4"},{"name":"flag","type":"bytes2","internalType":"bytes2"},{"name":"vin","type":"bytes","internalType":"bytes"},{"name":"vout","type":"bytes","internalType":"bytes"},{"name":"witness","type":"bytes","internalType":"bytes"},{"name":"locktime","type":"bytes4","internalType":"bytes4"}]},{"name":"prepareProof","type":"tuple","internalType":"struct Bridge.MerkleProof","components":[{"name":"intermediateNodes","type":"bytes","internalType":"bytes"},{"name":"blockHeight","type":"uint256","internalType":"uint256"},{"name":"index","type":"uint256","internalType":"uint256"}]},{"name":"payoutTx","type":"tuple","internalType":"struct Bridge.Transaction","components":[{"name":"version","type":"bytes4","internalType":"bytes4"},{"name":"flag","type":"bytes2","internalType":"bytes2"},{"name":"vin","type":"bytes","internalType":"bytes"},{"name":"vout","type":"bytes","internalType":"bytes"},{"name":"witness","type":"bytes","internalType":"bytes"},{"name":"locktime","type":"bytes4","internalType":"bytes4"}]},{"name":"blockHeader","type":"bytes","internalType":"bytes"},{"name":"withdrawalAddressPubKey","type":"bytes","internalType":"bytes"}],"outputs":[],"stateMutability":"payable"},{"type":"function","name":"setDepositScript","inputs":[{"name":"_depositPrefix","type":"bytes","internalType":"bytes"},{"name":"_depositSuffix","type":"bytes","internalType":"bytes"}],"outputs":[],"stateMutability":"nonpayable"},{"type":"function","name":"setFailedDepositVault","inputs":[{"name":"_failedDepositVault","type":"address","internalType":"address"}],"outputs":[],"stateMutability":"nonpayable"},{"type":"function","name":"setOperator","inputs":[{"name":"_operator","type":"address","internalType":"address"}],"outputs":[],"stateMutability":"nonpayable"},{"type":"function","name":"setOptimisticWithdrawAmount","inputs":[{"name":"_optimisticWithdrawAmount","type":"uint256","internalType":"uint256"}],"outputs":[],"stateMutability":"nonpayable"},{"type":"function","name":"setReplaceScript","inputs":[{"name":"_replacePrefix","type":"bytes","internalType":"bytes"},{"name":"_replaceSuffix","type":"bytes","internalType":"bytes"}],"outputs":[],"stateMutability":"nonpayable"},{"type":"function","name":"transferOwnership","inputs":[{"name":"newOwner","type":"address","internalType":"address"}],"outputs":[],"stateMutability":"nonpayable"},{"type":"function","name":"unpause","inputs":[],"outputs":[],"stateMutability":"nonpayable"},{"type":"function","name":"usedWithdrawalUTXO","inputs":[{"name":"","type":"bytes32","internalType":"bytes32"}],"outputs":[{"name":"","type":"bool","internalType":"bool"}],"stateMutability":"view"},{"type":"function","name":"withdraw","inputs":[{"name":"txId","type":"bytes32","internalType":"bytes32"},{"name":"outputId","type":"bytes4","internalType":"bytes4"}],"outputs":[],"stateMutability":"payable"},{"type":"function","name":"withdrawalUTXOs","inputs":[{"name":"","type":"uint256","internalType":"uint256"}],"outputs":[{"name":"txId","type":"bytes32","internalType":"bytes32"},{"name":"outputId","type":"bytes4","internalType":"bytes4"}],"stateMutability":"view"},{"type":"event","name":"Deposit","inputs":[{"name":"wtxId","type":"bytes32","indexed":false,"internalType":"bytes32"},{"name":"txId","type":"bytes32","indexed":false,"internalType":"bytes32"},{"name":"recipient","type":"address","indexed":false,"internalType":"address"},{"name":"timestamp","type":"uint256","indexed":false,"internalType":"uint256"},{"name":"depositId","type":"uint256","indexed":false,"internalType":"uint256"}],"anonymous":false},{"type":"event","name":"DepositReplaced","inputs":[{"name":"index","type":"uint256","indexed":false,"internalType":"uint256"},{"name":"oldTxId","type":"bytes32","indexed":false,"internalType":"bytes32"},{"name":"newTxId","type":"bytes32","indexed":false,"internalType":"bytes32"}],"anonymous":false},{"type":"event","name":"DepositScriptUpdate","inputs":[{"name":"depositPrefix","type":"bytes","indexed":false,"internalType":"bytes"},{"name":"depositSuffix","type":"bytes","indexed":false,"internalType":"bytes"}],"anonymous":false},{"type":"event","name":"DepositTransferFailed","inputs":[{"name":"wtxId","type":"bytes32","indexed":false,"internalType":"bytes32"},{"name":"txId","type":"bytes32","indexed":false,"internalType":"bytes32"},{"name":"recipient","type":"address","indexed":false,"internalType":"address"},{"name":"timestamp","type":"uint256","indexed":false,"internalType":"uint256"},{"name":"depositId","type":"uint256","indexed":false,"internalType":"uint256"}],"anonymous":false},{"type":"event","name":"FailedDepositVaultUpdated","inputs":[{"name":"oldVault","type":"address","indexed":false,"internalType":"address"},{"name":"newVault","type":"address","indexed":false,"internalType":"address"}],"anonymous":false},{"type":"event","name":"Initialized","inputs":[{"name":"version","type":"uint64","indexed":false,"internalType":"uint64"}],"anonymous":false},{"type":"event","name":"OperatorUpdated","inputs":[{"name":"oldOperator","type":"address","indexed":false,"internalType":"address"},{"name":"newOperator","type":"address","indexed":false,"internalType":"address"}],"anonymous":false},{"type":"event","name":"OptimisticWithdrawAmountSet","inputs":[{"name":"amount","type":"uint256","indexed":false,"internalType":"uint256"}],"anonymous":false},{"type":"event","name":"OwnershipTransferStarted","inputs":[{"name":"previousOwner","type":"address","indexed":true,"internalType":"address"},{"name":"newOwner","type":"address","indexed":true,"internalType":"address"}],"anonymous":false},{"type":"event","name":"OwnershipTransferred","inputs":[{"name":"previousOwner","type":"address","indexed":true,"internalType":"address"},{"name":"newOwner","type":"address","indexed":true,"internalType":"address"}],"anonymous":false},{"type":"event","name":"Paused","inputs":[{"name":"account","type":"address","indexed":false,"internalType":"address"}],"anonymous":false},{"type":"event","name":"ReplaceScriptUpdate","inputs":[{"name":"replacePrefix","type":"bytes","indexed":false,"internalType":"bytes"},{"name":"replaceSuffix","type":"bytes","indexed":false,"internalType":"bytes"}],"anonymous":false},{"type":"event","name":"SafeWithdrawal","inputs":[{"name":"payoutTx","type":"tuple","indexed":false,"internalType":"struct Bridge.Transaction","components":[{"name":"version","type":"bytes4","internalType":"bytes4"},{"name":"flag","type":"bytes2","internalType":"bytes2"},{"name":"vin","type":"bytes","internalType":"bytes"},{"name":"vout","type":"bytes","internalType":"bytes"},{"name":"witness","type":"bytes","internalType":"bytes"},{"name":"locktime","type":"bytes4","internalType":"bytes4"}]},{"name":"spentUtxo","type":"tuple","indexed":false,"internalType":"struct Bridge.UTXO","components":[{"name":"txId","type":"bytes32","internalType":"bytes32"},{"name":"outputId","type":"bytes4","internalType":"bytes4"}]},{"name":"index","type":"uint256","indexed":false,"internalType":"uint256"}],"anonymous":false},{"type":"event","name":"Unpaused","inputs":[{"name":"account","type":"address","indexed":false,"internalType":"address"}],"anonymous":false},{"type":"event","name":"Withdrawal","inputs":[{"name":"utxo","type":"tuple","indexed":false,"internalType":"struct Bridge.UTXO","components":[{"name":"txId","type":"bytes32","internalType":"bytes32"},{"name":"outputId","type":"bytes4","internalType":"bytes4"}]},{"name":"index","type":"uint256","indexed":false,"internalType":"uint256"},{"name":"timestamp","type":"uint256","indexed":false,"internalType":"uint256"}],"anonymous":false},{"type":"error","name":"EnforcedPause","inputs":[]},{"type":"error","name":"ExpectedPause","inputs":[]},{"type":"error","name":"InvalidInitialization","inputs":[]},{"type":"error","name":"NotInitializing","inputs":[]},{"type":"error","name":"OwnableInvalidOwner","inputs":[{"name":"owner","type":"address","internalType":"address"}]},{"type":"error","name":"OwnableUnauthorizedAccount","inputs":[{"name":"account","type":"address","internalType":"address"}]}],"bytecode":{"object":"0x6080806040523460155761522b908161001a8239f35b5f80fdfe60806040526004361015610011575f80fd5b5f3560e01c806306592167146102f5578063092ac5d4146102555780631369ac3e14610255578063158ef93e146102f057806319854623146102eb57806323dacd29146102e65780632594f107146102e15780632ad93d6f146102dc5780633bb0a3ee146102d75780633c918b6c146102d25780633f4ba83a146102cd57806341260137146102c8578063419759f5146102c3578063428bcd35146102be5780634379caa5146102b9578063471ba1e3146102b4578063570ca735146102af5780635b4f894d146102aa5780635c975abb146102a5578063656e7dd4146102a05780636b0b5a941461029b5780636cf7d64114610296578063709212aa14610291578063715018a61461028c578063781952a81461028757806379ba5097146102825780637ec9732a1461027d5780638456cb591461027857806385fb7151146102735780638752b6b21461026e5780638786dba71461026957806389f40ef9146102555780638da5cb5b146102645780639072f7471461025f5780639a4f308d1461025a578063a0dc275814610255578063a670e7ed14610250578063b2497e701461024b578063b3ab15fb14610246578063d761753e14610241578063e30c39781461023c578063e613ae0014610237578063f2fde38b14610232578063f42cb4fc1461022d578063f8e655d214610228578063fb11d7b9146102235763fdecdf531461021e575f80fd5b611dc0565b611ccf565b611b75565b611b5a565b611ae1565b611abf565b611a8b565b611a5d565b611988565b61196d565b611922565b61042a565b611906565b611851565b6117c9565b6116fb565b6116c3565b61160b565b61153d565b611454565b61135a565b61133d565b6112c0565b6112a3565b611288565b61124e565b61121f565b6111f1565b6111d6565b610eff565b610ea8565b610e79565b610e5e565b610e26565b610ba9565b610ac3565b610aa0565b6109f9565b6109de565b6106cb565b610694565b6104a6565b610455565b61032b565b634e487b7160e01b5f52603260045260245ffd5b6008548110156103265760085f5260205f2001905f90565b6102fa565b3461037b57602036600319011261037b5760043560085481101561037b5760209060085f527ff3f7a9fe364faab93b216da50a3214154f22a0a2b415b23a84c8169e8b636ee30154604051908152f35b5f80fd5b634e487b7160e01b5f52604160045260245ffd5b90601f801991011681019081106001600160401b038211176103b457604052565b61037f565b604051906103c8604083610393565b565b6001600160401b0381116103b457601f01601f191660200190565b604051906103f4604083610393565b600182525f6020830152565b602060409281835280519182918282860152018484015e5f828201840152601f01601f1916010190565b3461037b575f36600319011261037b576104516104456103e5565b60405191829182610400565b0390f35b3461037b575f36600319011261037b57602060ff5f54166040519015158152f35b9181601f8401121561037b578235916001600160401b03831161037b576020808501948460051b01011161037b57565b604036600319011261037b576004356001600160401b03811161037b576104d1903690600401610476565b6024356001600160401b03811161037b576104f0903690600401610476565b92906104fa6139ed565b610505848414611ddf565b61051b61051484600154611e31565b3414611e49565b600754935f5b84811061052a57005b60205f61058d61053b848989611e95565b3561058161055261054d87898b611e95565b611ea5565b6040518681019384526001600160e01b031990911660208401529182906024015b03601f198101835282610393565b60405191828092611eaf565b039060025afa15610670576001906105e96105dc5f516105ce6105c96105c56105be845f52600a60205260405f2090565b5460ff1690565b1590565b611ecc565b5f52600a60205260405f2090565b805460ff19166001179055565b7f3311a04a346a103ac115cca33028a2bc82f1964805860d0d3fc84a2772496ada610615828888611e95565b3561064361062761054d85888a611e95565b61062f6103b9565b9283526001600160e01b0319166020830152565b61064c81611f0c565b610656838a611fb9565b610667604051928392429184611fc6565b0390a101610521565b611ec1565b60405190610684604083610393565b60018252600160f91b6020830152565b3461037b575f36600319011261037b57610451610445610675565b908160c091031261037b5790565b9081606091031261037b5790565b3461037b57608036600319011261037b576004356001600160401b03811161037b576106fb9036906004016106af565b6024356001600160401b03811161037b5761071a9036906004016106bd565b906044356064355f5490929060081c6001600160a01b031633036109995761086a6109949161079960016107917f4d7c644a48da4c7857af62a00bad9806f0388564f22955ed846d938c244047f0986107766008548910611ff7565b61078b610784600554610f2a565b1515612033565b84613a97565b90501461207f565b604081016108546108646107bf6107ba6107b385876120c4565b36916117fd565b613c4b565b9761085c606086019561082e6107f56107db6107b38a856120c4565b6107ef6107e88b866120c4565b90506120f6565b90613d57565b9361080e6108096107b360808601866120c4565b614059565b9c8d61081985611ea5565b9060a086019761082889611ea5565b9361418a565b61084c61084461083d83611ea5565b97836120c4565b9890926120c4565b959093611ea5565b9636916117fd565b9236916117fd565b9161439d565b61088a6108856105c56105be845f52600960205260405f2090565b61212f565b61089f6105dc825f52600960205260405f2090565b61097761096f6108ed6108be6108b48761030e565b90549060031b1c90565b966108d2856108cc8961030e565b9061217b565b6108e860036108e083614a48565b905014612198565b61442e565b61096a61096561095d610901600554610f2a565b61094c610947610939610915600654610f2a565b93610933895161092d8761092885611f73565b611fb9565b146121dc565b88613ddf565b610941610f62565b906145ce565b612220565b610957818651612122565b85613fdb565b610941611017565b61226c565b614679565b9485146122b8565b604051938493846040919493926060820195825260208201520152565b0390a1005b60405162461bcd60e51b815260206004820152601a60248201527f63616c6c6572206973206e6f7420746865206f70657261746f720000000000006044820152606490fd5b3461037b575f36600319011261037b57602060405160f08152f35b3461037b57602036600319011261037b57600435610a156146ec565b8015610a4c576020817fb5d41f23e03dbe9f07303369446a4eff88ec21acd7ffc066d287ffd56f215f8592600b55604051908152a1005b60405162461bcd60e51b815260206004820152602660248201527f4f7074696d697374696320776974686472617720616d6f756e742063616e6e6f60448201526507420626520360d41b6064820152608490fd5b3461037b575f36600319011261037b57610451610445610abe6110ac565b613e2d565b3461037b575f36600319011261037b575f5160206151cb5f395f51905f52546001600160a01b031633148015610b63575b610afd9061230e565b5f5160206151eb5f395f51905f525460ff811615610b545760ff19165f5160206151eb5f395f51905f52557f5db9ee0a495bf2e6ff9c91a7834c1ba4fdd244a5e8aa4e537bd38aeae4b073aa6020604051338152a1005b638dfc202b60e01b5f5260045ffd5b505f543360089190911c6001600160a01b031614610af4565b9181601f8401121561037b578235916001600160401b03831161037b576020838186019501011161037b57565b3461037b57606036600319011261037b576004356001600160401b03811161037b57610bd9903690600401610b7c565b6024356001600160401b03811161037b57610bf8903690600401610b7c565b6044359273deaddeaddeaddeaddeaddeaddeaddeaddeaddead3303610de1577fb5d41f23e03dbe9f07303369446a4eff88ec21acd7ffc066d287ffd56f215f8594610d967f80bd1fdfe157286ce420ee763f91748455b249605748e5df12dad9844402bafc93610cf061099497610c7b610c766105c55f5460ff1690565b612366565b610c868115156123b2565b610c9360228710156123fe565b610ca46402540be40082061561245e565b610cbe6001600160401b036402540be400830411156124bf565b610cce600160ff195f5416175f55565b610cd886866125d0565b610ce283896126b1565b610ceb81600155565b612104565b95610cfa87600b55565b5f8054610100600160a81b03191674deaddeaddeaddeaddeaddeaddeaddeaddeaddead00179055600280546001600160a01b0319166007603160981b011790557ffbe5b6cbafb274f445d7fed869dc77a838d8243a22c460de156560e8857cad0360405180610d87819073deaddeaddeaddeaddeaddeaddeaddeaddeaddead602060408401935f81520152565b0390a160405194859485612950565b0390a1604080515f81526007603160981b0160208201527f79250b96878fd457364d1c1b77a660973c4f4ab67bda5e2fdb42caaa4d515f9d9190a16040519081529081906020820190565b60405162461bcd60e51b815260206004820152601f60248201527f63616c6c6572206973206e6f74207468652073797374656d2063616c6c6572006044820152606490fd5b3461037b575f36600319011261037b576020600154604051908152f35b60405190610e52604083610393565b600482525f6020830152565b3461037b575f36600319011261037b57610451610445610e43565b3461037b57602036600319011261037b576004355f526009602052602060ff60405f2054166040519015158152f35b3461037b57602036600319011261037b5760043560075481101561037b576007548110156103265760409060075f5260205f209060011b016001815491015460e01b825191825263ffffffff60e01b166020820152f35b3461037b575f36600319011261037b575f5460405160089190911c6001600160a01b03168152602090f35b90600182811c92168015610f58575b6020831014610f4457565b634e487b7160e01b5f52602260045260245ffd5b91607f1691610f39565b604051905f8260055491610f7583610f2a565b8083529260018116908115610ff85750600114610f99575b6103c892500383610393565b5060055f90815290917f036b6384b5eca791c62761152d0c79bb0604c104a5fb6f4eb0703f3154bb3db05b818310610fdc5750509060206103c892820101610f8d565b6020919350806001915483858901015201910190918492610fc4565b602092506103c894915060ff191682840152151560051b820101610f8d565b604051905f826006549161102a83610f2a565b8083529260018116908115610ff8575060011461104d576103c892500383610393565b5060065f90815290917ff652222313e28459528d920b65115c16c04f3efc82aaedc97be59f3f377c0d3f5b8183106110905750509060206103c892820101610f8d565b6020919350806001915483858901015201910190918492611078565b604051905f82600354916110bf83610f2a565b8083529260018116908115610ff857506001146110e2576103c892500383610393565b5060035f90815290917fc2575a0e9e593c00f959f8c92f12db2869c3395a3b0502d05e2516446f71f85b5b8183106111255750509060206103c892820101610f8d565b602091935080600191548385890101520191019091849261110d565b604051905f826004549161115483610f2a565b8083529260018116908115610ff85750600114611177576103c892500383610393565b5060045f90815290917f8a35acfbc15ff81a39ae7d344fd709f28e8600b4aa8c65c6b64bfe7fe36bd19b5b8183106111ba5750509060206103c892820101610f8d565b60209193508060019154838589010152019101909184926111a2565b3461037b575f36600319011261037b576104516104456110ac565b3461037b575f36600319011261037b57602060ff5f5160206151eb5f395f51905f5254166040519015158152f35b3461037b57602036600319011261037b576004355f52600a602052602060ff60405f2054166040519015158152f35b3461037b575f36600319011261037b57610451610445610f62565b60405190611278604083610393565b60018252608360f81b6020830152565b3461037b575f36600319011261037b57610451610445611269565b3461037b575f36600319011261037b576020600b54604051908152f35b3461037b575f36600319011261037b576112d86146ec565b5f51602061520b5f395f51905f5280546001600160a01b03199081169091555f5160206151cb5f395f51905f52805491821690555f906001600160a01b03167f8be0079c531659141344cd1fd0a4f28419497f9722a3daafe3b4186f6b6457e08280a3005b3461037b575f36600319011261037b576020600754604051908152f35b3461037b575f36600319011261037b575f51602061520b5f395f51905f5254336001600160a01b03909116036113f1575f51602061520b5f395f51905f5280546001600160a01b03199081169091555f5160206151cb5f395f51905f5280543392811683179091556001600160a01b03167f8be0079c531659141344cd1fd0a4f28419497f9722a3daafe3b4186f6b6457e05f80a3005b63118cdaa760e01b5f523360045260245ffd5b604060031982011261037b576004356001600160401b03811161037b578161142e91600401610b7c565b92909291602435906001600160401b03821161037b5761145091600401610b7c565b9091565b3461037b5761146236611404565b929061146c6146ec565b602283106114e4577f6c9ac69a5e351d3e7ac9be95040d29a264d1ce6a409ca9f042c64c66c3f2a23a93610994916114c46114b36114ae610abe3689896117fd565b61470c565b6114be6114ae612303565b14612977565b6114ce8585612786565b6114d8828261285b565b60405194859485612950565b60405162461bcd60e51b815260206004820152602b60248201527f5265706c61636520736372697074206d757374206265206c6f6e67657220746860448201526a616e20333420627974657360a81b6064820152608490fd5b3461037b575f36600319011261037b575f5160206151cb5f395f51905f52546001600160a01b0316331480156115d0575b6115779061230e565b61157f6139ed565b600160ff195f5160206151eb5f395f51905f525416175f5160206151eb5f395f51905f52557f62e78cea01bee320cd4e420270b5ea74000d11b0c9f74754ebdbfc544b05a2586020604051338152a1005b505f543360089190911c6001600160a01b03161461156e565b602090600319011261037b576004356001600160a01b038116810361037b5790565b3461037b57611619366115e9565b6116216146ec565b6001600160a01b03811690811561168c57600280546001600160a01b031981169093179055604080516001600160a01b0393841681529290911660208301527f79250b96878fd457364d1c1b77a660973c4f4ab67bda5e2fdb42caaa4d515f9d919081908101610994565b60405162461bcd60e51b815260206004820152600f60248201526e496e76616c6964206164647265737360881b6044820152606490fd5b3461037b575f36600319011261037b57610451610445611141565b6001600160e01b031981160361037b57565b35906103c8826116de565b604036600319011261037b57602435600435611716826116de565b61171e6139ed565b61172b6001543414611e49565b60205f6117596040516105818161057388888884019091602492825263ffffffff60e01b1660208201520190565b039060025afa15610670576117ac7f3311a04a346a103ac115cca33028a2bc82f1964805860d0d3fc84a2772496ada926106276105dc5f516105ce6105c96105c56105be845f52600a60205260405f2090565b6007546117b882611f0c565b610994604051928392429184611fc6565b3461037b575f36600319011261037b575f5160206151cb5f395f51905f52546040516001600160a01b039091168152602090f35b929192611809826103ca565b916118176040519384610393565b82948184528183011161037b578281602093845f960137010152565b9080601f8301121561037b5781602061184e933591016117fd565b90565b60a036600319011261037b576004356001600160401b03811161037b5761187c9036906004016106af565b6024356001600160401b03811161037b5761189b9036906004016106bd565b906044356001600160401b03811161037b576118bb9036906004016106af565b6064356001600160401b03811161037b576118da903690600401610b7c565b91608435946001600160401b03861161037b576118fe611904963690600401611833565b94613206565b005b3461037b575f36600319011261037b5760206040516102008152f35b3461037b575f36600319011261037b576002546040516001600160a01b039091168152602090f35b60405190611959604083610393565b600482526001600160e01b03196020830152565b3461037b575f36600319011261037b5761045161044561194a565b3461037b57611996366115e9565b61199e6146ec565b6001600160a01b03811615611a18575f8054610100600160a81b03600884811b91909116610100600160a81b0319831617909255604080516001600160a01b039290931c82168352921660208201527ffbe5b6cbafb274f445d7fed869dc77a838d8243a22c460de156560e8857cad039181908101610994565b60405162461bcd60e51b815260206004820152601f60248201527f4f70657261746f722063616e6e6f74206265207a65726f2061646472657373006044820152606490fd5b3461037b575f36600319011261037b57602060405173deaddeaddeaddeaddeaddeaddeaddeaddeaddead8152f35b3461037b575f36600319011261037b575f51602061520b5f395f51905f52546040516001600160a01b039091168152602090f35b3461037b575f36600319011261037b576040516001603160981b018152602090f35b3461037b57611aef366115e9565b611af76146ec565b5f51602061520b5f395f51905f5280546001600160a01b0319166001600160a01b039283169081179091555f5160206151cb5f395f51905f52549091167f38d16b8cac22d99fc7c124b9cd0de2d3fa1faef420bfe791d8c362d765e227005f80a3005b3461037b575f36600319011261037b57610451610445611017565b3461037b57611b8336611404565b611b8e9391936146ec565b611b9b60228410156123fe565b6001600160401b0383116103b457611bbd83611bb8600354610f2a565b612531565b5f93601f8411600114611c29579061099491611c1085807f80bd1fdfe157286ce420ee763f91748455b249605748e5df12dad9844402bafc985f91611c1e575b508160011b915f199060031b1c19161790565b6003555b6114d882826126b1565b90508601355f611bfd565b60035f52601f1984167fc2575a0e9e593c00f959f8c92f12db2869c3395a3b0502d05e2516446f71f85b905f5b818110611cb75750907f80bd1fdfe157286ce420ee763f91748455b249605748e5df12dad9844402bafc968661099495949310611c9e575b5050600185811b01600355611c14565b8501355f19600388901b60f8161c191690555f80611c8e565b85880135835560209788019760019093019201611c56565b3461037b57606036600319011261037b576004356001600160401b03811161037b57611cff9036906004016106af565b6024356001600160401b03811161037b57611d1e9036906004016106bd565b6044359073deaddeaddeaddeaddeaddeaddeaddeaddeaddead33148015611da7575b15611d4e57611904926136ad565b60405162461bcd60e51b815260206004820152602b60248201527f63616c6c6572206973206e6f74207468652073797374656d2063616c6c65722060448201526a37b91037b832b930ba37b960a91b6064820152608490fd5b505f543360089190911c6001600160a01b031614611d40565b3461037b575f36600319011261037b5760206040516402540be4008152f35b15611de657565b60405162461bcd60e51b815260206004820152600f60248201526e098cadccee8d040dad2e6dac2e8c6d608b1b6044820152606490fd5b634e487b7160e01b5f52601160045260245ffd5b81810292918115918404141715611e4457565b611e1d565b15611e5057565b60405162461bcd60e51b815260206004820152601760248201527f496e76616c696420776974686472617720616d6f756e740000000000000000006044820152606490fd5b91908110156103265760051b0190565b3561184e816116de565b805191908290602001825e015f815290565b6040513d5f823e3d90fd5b15611ed357565b60405162461bcd60e51b815260206004820152601160248201527015551613c8185b1c9958591e481d5cd959607a1b6044820152606490fd5b600754600160401b8110156103b457600181016007556007548110156103265760075f5260011b7fa66cc928b5edb82af9bd49922954155ab7b0942694bea4ce44661d9a8736c688016001602091835181550191015160e01c63ffffffff19825416179055565b9060208201809211611e4457565b6009019081600911611e4457565b9060148201809211611e4457565b6001019081600111611e4457565b9060018201809211611e4457565b91908201809211611e4457565b606091949392611fee826080810197602090805183528163ffffffff60e01b91015116910152565b60408201520152565b15611ffe57565b60405162461bcd60e51b815260206004820152600d60248201526c092dcecc2d8d2c840d2dcc8caf609b1b6044820152606490fd5b1561203a57565b60405162461bcd60e51b815260206004820152601960248201527f5265706c61636520736372697074206973206e6f7420736574000000000000006044820152606490fd5b1561208657565b60405162461bcd60e51b815260206004820152601660248201527513db9b1e481bdb99481a5b9c1d5d08185b1b1bddd95960521b6044820152606490fd5b903590601e198136030182121561037b57018035906001600160401b03821161037b5760200191813603831361037b57565b5f19810191908211611e4457565b60ef19810191908211611e4457565b601f19810191908211611e4457565b91908203918211611e4457565b1561213657565b60405162461bcd60e51b815260206004820152601c60248201527f7478496420616c7265616479207573656420746f207265706c616365000000006044820152606490fd5b916121949183549060031b91821b915f19901b19161790565b9055565b1561219f57565b60405162461bcd60e51b8152602060048201526015602482015274496e76616c6964207769746e657373206974656d7360581b6044820152606490fd5b156121e357565b60405162461bcd60e51b8152602060048201526015602482015274092dcecc2d8d2c840e6c6e4d2e0e840d8cadccee8d605b1b6044820152606490fd5b1561222757565b60405162461bcd60e51b815260206004820152601d60248201527f496e76616c6964207265706c61636520736372697074207072656669780000006044820152606490fd5b1561227357565b60405162461bcd60e51b815260206004820152601d60248201527f496e76616c6964207265706c61636520736372697074207375666669780000006044820152606490fd5b156122bf57565b606460405162461bcd60e51b815260206004820152602060248201527f496e76616c6964207478496420746f207265706c6163652070726f76696465646044820152fd5b61184e610abe6110ac565b1561231557565b60405162461bcd60e51b815260206004820152602360248201527f63616c6c6572206973206e6f7420746865206f776e6572206f72206f706572616044820152623a37b960e91b6064820152608490fd5b1561236d57565b60405162461bcd60e51b815260206004820152601f60248201527f436f6e747261637420697320616c726561647920696e697469616c697a6564006044820152606490fd5b156123b957565b60405162461bcd60e51b815260206004820152601a60248201527f4465706f73697420616d6f756e742063616e6e6f7420626520300000000000006044820152606490fd5b1561240557565b60405162461bcd60e51b815260206004820152602b60248201527f4465706f73697420736372697074206d757374206265206c6f6e67657220746860448201526a616e20333420627974657360a81b6064820152608490fd5b1561246557565b60405162461bcd60e51b815260206004820152602c60248201527f4465706f73697420616d6f756e74206d75737420686176652076616c6964207360448201526b61746f7368692076616c756560a01b6064820152608490fd5b156124c657565b60405162461bcd60e51b815260206004820152603760248201527f4465706f73697420616d6f756e742064697669646564206279205341545f544f60448201527f5f574549206d7573742066697420696e2075696e7436340000000000000000006064820152608490fd5b601f811161253d575050565b60035f5260205f20906020601f840160051c83019310612577575b601f0160051c01905b81811061256c575050565b5f8155600101612561565b9091508190612558565b601f821161258e57505050565b5f5260205f20906020601f840160051c830193106125c6575b601f0160051c01905b8181106125bb575050565b5f81556001016125b0565b90915081906125a7565b91906001600160401b0381116103b4576125f6816125ef600354610f2a565b6003612581565b5f601f821160011461263457819061262493945f92612629575b50508160011b915f199060031b1c19161790565b600355565b013590505f80612610565b60035f52601f198216937fc2575a0e9e593c00f959f8c92f12db2869c3395a3b0502d05e2516446f71f85b915f5b8681106126995750836001959610612680575b505050811b01600355565b01355f19600384901b60f8161c191690555f8080612675565b90926020600181928686013581550194019101612662565b91906001600160401b0381116103b4576126d7816126d0600454610f2a565b6004612581565b5f601f821160011461270957819061270493945f926126295750508160011b915f199060031b1c19161790565b600455565b60045f52601f198216937f8a35acfbc15ff81a39ae7d344fd709f28e8600b4aa8c65c6b64bfe7fe36bd19b915f5b86811061276e5750836001959610612755575b505050811b01600455565b01355f19600384901b60f8161c191690555f808061274a565b90926020600181928686013581550194019101612737565b91906001600160401b0381116103b4576127ac816127a5600554610f2a565b6005612581565b5f601f82116001146127de5781906127d993945f926126295750508160011b915f199060031b1c19161790565b600555565b60055f52601f198216937f036b6384b5eca791c62761152d0c79bb0604c104a5fb6f4eb0703f3154bb3db0915f5b868110612843575083600195961061282a575b505050811b01600555565b01355f19600384901b60f8161c191690555f808061281f565b9092602060018192868601358155019401910161280c565b91906001600160401b0381116103b4576128818161287a600654610f2a565b6006612581565b5f601f82116001146128b35781906128ae93945f926126295750508160011b915f199060031b1c19161790565b600655565b60065f52601f198216937ff652222313e28459528d920b65115c16c04f3efc82aaedc97be59f3f377c0d3f915f5b86811061291857508360019596106128ff575b505050811b01600655565b01355f19600384901b60f8161c191690555f80806128f4565b909260206001819286860135815501940191016128e1565b908060209392818452848401375f828201840152601f01601f1916010190565b92906129699061184e9593604086526040860191612930565b926020818503910152612930565b1561297e57565b60405162461bcd60e51b815260206004820152604560248201527f5265706c61636520707265666978206d75737420636f6e7461696e207468652060448201527f73616d652061676772656761746564206b6579206173206465706f73697420706064820152640e4caccd2f60db1b608482015260a490fd5b6129ff6139ed565b612a0c6001543414611e49565b60205f612a3a6040516105818161057388888884019091602492825263ffffffff60e01b1660208201520190565b039060025afa1561067057612a8d7f3311a04a346a103ac115cca33028a2bc82f1964805860d0d3fc84a2772496ada926106276105dc5f516105ce6105c96105c56105be845f52600a60205260405f2090565b600754612a9982611f0c565b612aaa604051928392429184611fc6565b0390a1565b15612ab657565b60405162461bcd60e51b815260206004820152601d60248201527f56696e206973206e6f742070726f7065726c7920666f726d61747465640000006044820152606490fd5b15612b0257565b60405162461bcd60e51b815260206004820152601e60248201527f566f7574206973206e6f742070726f7065726c7920666f726d617474656400006044820152606490fd5b9081602091031261037b5751801515810361037b5790565b9796959192612b969460809694612b88938b5260208b015260a060408b015260a08a0191612930565b918783036060890152612930565b930152565b15612ba257565b60405162461bcd60e51b815260206004820152601b60248201527f5472616e73616374696f6e206973206e6f7420696e20626c6f636b00000000006044820152606490fd5b15612bee57565b60405162461bcd60e51b8152602060048201526024808201527f5061796f75742076696e206973206e6f742070726f7065726c7920666f726d616044820152631d1d195960e21b6064820152608490fd5b15612c4657565b60405162461bcd60e51b815260206004820152602860248201527f5061796f75742076696e2073686f756c6420686176652065786163746c79206f6044820152671b99481a5b9c1d5d60c21b6064820152608490fd5b15612ca357565b60405162461bcd60e51b815260206004820152602a60248201527f5061796f757420766f75742073686f756c6420686176652065786163746c79206044820152691bdb99481bdd5d1c1d5d60b21b6064820152608490fd5b15612d0257565b60405162461bcd60e51b815260206004820152602560248201527f5061796f757420766f7574206973206e6f742070726f7065726c7920666f726d604482015264185d1d195960da1b6064820152608490fd5b15612d5c57565b60405162461bcd60e51b815260206004820152602860248201527f5061796f7574207769746e657373206973206e6f742070726f7065726c7920666044820152671bdc9b585d1d195960c21b6064820152608490fd5b15612db957565b60405162461bcd60e51b815260206004820152603d60248201527f5061796f7574206f75747075742076616c756520646f6573206e6f74206d617460448201527f6368206f7074696d697374696320776974686472617720616d6f756e740000006064820152608490fd5b15612e2b57565b60405162461bcd60e51b815260206004820152602360248201527f496e76616c6964207061796f7574206f757470757420736372697074207075626044820152626b657960e81b6064820152608490fd5b15612e8357565b60405162461bcd60e51b8152602060048201526012602482015271125b9d985b1a59081cdc195b9d081d1e125960721b6044820152606490fd5b15612ec457565b60405162461bcd60e51b815260206004820152601b60248201527f496e76616c6964207370656e74206f7574707574206c656e67746800000000006044820152606490fd5b60405190612f18604083610393565b60018252601160f91b6020830152565b15612f2f57565b60405162461bcd60e51b815260206004820152602960248201527f496e76616c6964207370656e74206f757470757420736372697074207075626b6044820152680caf240d8cadccee8d60bb1b6064820152608490fd5b60405190612f95604083610393565b6002825261028960f51b6020830152565b15612fad57565b60405162461bcd60e51b815260206004820152602160248201527f5370656e74206f7574707574206973206e6f7420612050325452206f757470756044820152601d60fa1b6064820152608490fd5b613058979360249b99979561302361303f9561301d8f9a9695600896611eaf565b90611eaf565b6001600160e01b03199283168152911660048201520190611eaf565b9182526001600160e01b03191660208201520190611eaf565b6001600160e01b0319909216825260048201520190565b6040519061307e604083610393565b600a8252690a8c2e0a6d2ced0c2e6d60b31b6020830152565b1561309e57565b60405162461bcd60e51b8152602060048201526011602482015270496e76616c6964207369676e617475726560781b6044820152606490fd5b6001600160f01b031981160361037b57565b9035601e198236030181121561037b5701602081359101916001600160401b03821161037b57813603831361037b57565b61320260609295949395608083528035613133816116de565b6001600160e01b03191660808401526020810135613150816130d7565b61ffff60f01b1660a08401526131e26131d060a06131c96131a961318b61317a60408801886130e9565b60c0808c01526101408b0191612930565b6131978a8801886130e9565b8a8303607f190160e08c015290612930565b6131b660808701876130e9565b898303607f19016101008b015290612930565b93016116f0565b6001600160e01b031916610120850152565b8651602084810191909152909601516001600160e01b0319166040830152565b0152565b94919092602061085c956132c29561328d6132848a61323c6132376132326107b36040850180956120c4565b614782565b612aaf565b60a06108648d606081019d8e61326561326061325b6107b384876120c4565b6147fa565b612afb565b61085461327b61327485611ea5565b97856120c4565b989092856120c4565b96909401611ea5565b968792604085840135936132a181806120c4565b929091013592604051988997889763cd4cc08f60e01b895260048901612b5f565b03816001603160981b015afa8015610670576132e5915f9161367e575b50612b9b565b604081016132f381836120c4565b36906132fe926117fd565b61330790614782565b61331090612be7565b61331a81836120c4565b3690613325926117fd565b61332e90614a48565b6060840197915061333f88856120c4565b369061334a926117fd565b61335390614a48565b916133619150600114612c3f565b60011461336d90612c9c565b61337787846120c4565b3690613382926117fd565b61338b906147fa565b61339490612cfb565b60808301916133a383856120c4565b36906133ae926117fd565b6133b790614869565b6133c090612d55565b6133ca90846120c4565b36906133d5926117fd565b6133de90613c4b565b966133e990846120c4565b36906133f4926117fd565b6133fd9061493e565b9161340890846120c4565b3690613413926117fd565b61341c90614059565b60208301519094906134309060c01c61504b565b6001600160401b0316600b541461344690612db2565b61344f83614ba4565b9061345990611f81565b906134649185613fdb565b9061346e916145ce565b61347790612e24565b602087015194851461348890612e7c565b60408701516001600160e01b031916956134a1916120c4565b36906134ac926117fd565b8560e01c6134de90600881811c62ff00ff1691901b63ff00ff001617601081811b63ffff00001691901c61ffff161790565b63ffffffff166134ed916149cb565b8051602b146134fb90612ebd565b61350481613e76565b61350c612f09565b613515916145ce565b61351e90612f28565b61352781613ebf565b61352f612f86565b613538916145ce565b61354190612fa6565b61354a81613f08565b6045909701516001600160e01b0319169160405180916020820161356d91611eaf565b03601f198101825261357f9082610393565b60405161358d818093611eaf565b03905a915f916002602094fa15610670576103c8967fd77102e5369b5b1a9db1972cb3de26ee79abc69de5cde41eeaa67fe3939c1c559461363d61363361362d876136208b6105738e6136489b6136439b5f51926135e96103e5565b956135f2611269565b9861360860a061360183611ea5565b9201611ea5565b6136106103e5565b916040519b8c9a60208c01612ffc565b61362861306f565b614d14565b92614504565b6107ef81516120f6565b91614d7c565b613097565b6136506103b9565b8381526001600160e01b031985166020820152906136766007546040519384938461311a565b0390a16129f7565b6136a0915060203d6020116136a6575b6136988183610393565b810190612b47565b5f6132df565b503d61368e565b6137166136d7613770926107996136cf600197966136c96139ed565b83613a97565b90971461207f565b926136f86136f36105c56105be875f52600960205260405f2090565b613850565b61370d6105dc855f52600960205260405f2090565b6108d284613891565b61376b61376661375e61372a600354610f2a565b61094c61375961375161373e600454610f2a565b93610933895161092d8761092885611f8f565b6109416110ac565b6138da565b610941611141565b61391f565b614e54565b905f808080600154865af1613783613963565b50613820576137f17fabd361bc68da04a386a8de9d0fb3044cca0856cbd86e9e4a63237e015b3e4bb9936137b86008546120f6565b6040805192835260208301949094526001600160a01b0390941692810192909252426060830152608082019290925290819060a0820190565b0390a16103c85f80808061380c60025460018060a01b031690565b600154905af161381a613963565b50613992565b612aaa7fa82453ca34121b3ecb910d957824e27c5dc6465315949facd15fb72886490058936137b86008546120f6565b1561385757565b60405162461bcd60e51b81526020600482015260126024820152711d1e125908185b1c9958591e481cdc195b9d60721b6044820152606490fd5b600854600160401b8110156103b457600181016008556008548110156103265760085f527ff3f7a9fe364faab93b216da50a3214154f22a0a2b415b23a84c8169e8b636ee30155565b156138e157565b60405162461bcd60e51b8152602060048201526016602482015275125b9d985b1a590819195c1bdcda5d081cd8dc9a5c1d60521b6044820152606490fd5b1561392657565b60405162461bcd60e51b8152602060048201526015602482015274092dcecc2d8d2c840e6c6e4d2e0e840e6eaccccd2f605b1b6044820152606490fd5b3d1561398d573d90613974826103ca565b916139826040519384610393565b82523d5f602084013e565b606090565b1561399957565b60405162461bcd60e51b815260206004820152602660248201527f4661696c656420746f2073656e6420746f206661696c6564206465706f736974604482015265081d985d5b1d60d21b6064820152608490fd5b60ff5f5160206151eb5f395f51905f525416613a0557565b63d93c066560e01b5f5260045ffd5b3561184e816130d7565b15613a2557565b60405162461bcd60e51b815260206004820152602160248201527f5769746e657373206973206e6f742070726f7065726c7920666f726d617474656044820152601960fa1b6064820152608490fd5b959493612b96926060949288526020880152608060408801526080870191612930565b9190613aa283611ea5565b90613aaf60208501613a14565b9360408101613abe81836120c4565b9490966060840195613ad087866120c4565b608087019a91613ae08c896120c4565b949093613aef60a08b01611ea5565b96613af998614f01565b93613b0482846120c4565b3690613b0f926117fd565b613b1890614782565b613b2190612aaf565b613b2b90836120c4565b3690613b36926117fd565b613b3f906147fa565b613b4890612afb565b613b5290826120c4565b3690613b5d926117fd565b613b6690614a48565b95613b73915086926120c4565b3690613b7e926117fd565b90613b88916148a9565b613b9190613a1e565b602081013590613ba181806120c4565b604080516327fe9a2560e11b8152948594613bc794920135929190879060048701613a74565b6001603160981b0191839103815a93602094fa801561067057613bf0915f9161367e5750612b9b565b9190565b15613bfb57565b60405162461bcd60e51b815260206004820152602260248201527f52656164206f76657272756e20647572696e6720566172496e742070617273696044820152616e6760f01b6064820152608490fd5b613c5481614a48565b613c615f19831415613bf4565b15613cdd57613c71600191611f9d565b90613cd8575b613c818183614f72565b905f198214613c935761184e92613fdb565b60405162461bcd60e51b815260206004820152601760248201527f42616420566172496e7420696e207363726970745369670000000000000000006044820152606490fd5b613c77565b60405162461bcd60e51b815260206004820152601060248201526f2b34b7103932b0b21037bb32b9393ab760811b6044820152606490fd5b15613d1c57565b60405162461bcd60e51b8152602060048201526013602482015272536c696365206f7574206f6620626f756e647360681b6044820152606490fd5b9190918215613dc8578260010180600111611e4457806001613d8192119081613dbc575b50613d15565b60405192604081850101604052808452602182850391818401930101915b828110613dab57505050565b80518282015f190152602001613d9f565b9050825110155f613d7b565b509050604051613dd9602082610393565b5f815290565b9190918215613dc857613df58382511015613d15565b60405192604081850101604052808452602082850391818401930101915b828110613e1f57505050565b805182820152602001613e13565b90613e3c602283511015613d15565b6040519160608301604052602083528083036042602283019201915b828110613e6457505050565b80518282016001190152602001613e58565b90613e85600983511015613d15565b6040519160418301604052600183528083036029602883019201915b828110613ead57505050565b80518282016007190152602001613ea1565b90613ece600b83511015613d15565b604051916042830160405260028352808303602b602983019201915b828110613ef657505050565b80518282016008190152602001613eea565b90613f17602b83511015613d15565b604051916060830160405260208352808303604b602b83019201915b828110613f3f57505050565b8051828201600a190152602001613f33565b90613f60604083511015613d15565b6040519160808301604052604083528083036060602083019201915b828110613f8857505050565b805182820152602001613f7c565b90613fa5602483511015613d15565b6040519160648301604052602483528083036044602083019201915b828110613fcd57505050565b805182820152602001613fc1565b929190811561404757818101808211611e445780826140019211908161403b5750613d15565b604051936040838601016040528285520190602082850391818401930101915b82811061402d57505050565b805182820152602001614021565b9050855110155f613d7b565b50509050604051613dd9602082610393565b6140635f82614fb1565b5f198114614075575f61184e92613fdb565b60405162461bcd60e51b815260206004820152601560248201527442616420566172496e7420696e207769746e65737360581b6044820152606490fd5b8051600110156103265760210190565b8051601f101561032657603f0190565b908151811015610326570160200190565b60019061184e939260ff60f81b1681520190611eaf565b60405190614109604083610393565b60078252662a30b82632b0b360c91b6020830152565b9661301d9661184e9f9e9c989660a89661301d9f9c9561414b9060209f9a61301d906141809f98611eaf565b6001600160e01b0319978816815296166004870152600886015260288501526048840152606883015260888201520190611eaf565b9081520190611eaf565b91949390929360205f61419f61058186613f96565b039060025afa15610670575f519060205f6142126105736105816141f46141e46141df6141d36001546402540be400900490565b6001600160401b031690565b61504b565b60c01b6001600160c01b03191690565b6040519283918783016008916001600160401b0360c01b1681520190565b039060025afa156106705760205f61425b610573610581614240845199604563ffffffff60e01b9101511690565b60405192839187830160049163ffffffff60e01b1681520190565b039060025afa156106705760205f61428461057361058183519960405192839187830190611eaf565b039060025afa15610670575f519361429b8861442e565b607f60f91b6142a98a614566565b6142b2906140b2565b516001600160f81b0319166040519283926142d19216602084016140e3565b03601f19810182526142e39082610393565b6142eb6140fa565b906142f591614d14565b916142fe6103e5565b956143076103e5565b97614310610675565b92614319610e43565b946143226103e5565b9761432b61194a565b996040519d8e9d60208f019d6143409e61411f565b03601f19810182526143529082610393565b61435a61306f565b9061436491614d14565b9061436e90614504565b8051614379906120f6565b61438291613d57565b61438a612303565b9161439492614d7c565b6103c890613097565b60049061184e946143cd6143e8949561301d60405197889563ffffffff60e01b1660208701526024860190611eaf565b9063ffffffff60e01b16815203601b19810184520182610393565b6150c4565b156143f457565b60405162461bcd60e51b815260206004820152601260248201527142616420566172496e7420696e206974656d60701b6044820152606490fd5b9061443882614a48565b6144455f19831415613bf4565b600110156144c85761445690611f9d565b915f925b600184106144905761184e92935061448a6144856144788385614c53565b6109285f198314156143ed565b611fab565b91613fdb565b6144c0816144ba6109286144a660019587614c53565b91906144b55f198214156143ed565b611f9d565b90611fb9565b93019261445a565b60405162461bcd60e51b81526020600482015260146024820152732bb4ba3732b9b9903932b0b21037bb32b9393ab760611b6044820152606490fd5b61450d81614a48565b90919061451d5f19841415613bf4565b156144c85761452d600192611f9d565b91614561575b61453d8282614c53565b929061454c5f198214156143ed565b8301809311611e445761448a61184e93611fab565b614533565b9061457082614a48565b61457d5f19831415613bf4565b600210156144c85761458e90611f9d565b915f925b600284106145b05761184e92935061448a6144856144788385614c53565b6145c6816144ba6109286144a660019587614c53565b930192614592565b90815191815183036146725760205b83811115614657576145ee90612113565b8381106145fe5750505050600190565b61461961460b82846140d2565b516001600160f81b03191690565b61463661462961460b84876140d2565b6001600160f81b03191690565b6001600160f81b03199091160361464f576001016145ee565b505050505f90565b8181015183820151602090920191146145dd57505050505f90565b5050505f90565b614684600554610f2a565b60208101808211611e445780826146a2921190816146e05750613d15565b604051916060830160405260208352018082036040602083019201915b8281106146d25750505061184e9061470c565b8051828201526020016146bf565b9050835110155f613d7b565b5f5160206151cb5f395f51905f52546001600160a01b031633036113f157565b805190811561477c576020821161472c57602001519060200360031b1c90565b60405162461bcd60e51b815260206004820152602260248201527f42797465732063616e6e6f74206265206d6f7265207468616e20333220627974604482015261657360f01b6064820152608490fd5b50505f90565b61478b81614a48565b9190821580156147f0575b6146725760010180600111611e4457915f905b8082106147b7575050511490565b9092825181101561464f576147cc8184614f72565b5f1981146147e7578101809111611e445792600101906147a9565b50505050505f90565b505f198114614796565b61480381614a48565b91908215801561485f575b6146725760010180600111611e4457915f905b80821061482f575050511490565b9092825181101561464f5761484481846150e1565b5f1981146147e7578101809111611e44579260010190614821565b505f19811461480e565b5f905f5b6001811061487b5750511490565b9181518110156146725761488f8183614fb1565b5f19811461464f578101809111611e44579160010161486d565b811561477c575f915f905b8082106148c2575050511490565b9092825181101561464f576148d78184614fb1565b5f1981146147e7578101809111611e445792600101906148b4565b156148f957565b60405162461bcd60e51b815260206004820152601a60248201527f42616420566172496e7420696e207363726970745075626b65790000000000006044820152606490fd5b61494781614a48565b9091906149575f19841415613bf4565b1561499257600161496a61184e93611f9d565b9061498d575b61497a81836150e1565b916149885f198414156148f2565b613fdb565b614970565b60405162461bcd60e51b81526020600482015260116024820152702b37baba103932b0b21037bb32b9393ab760791b6044820152606490fd5b9190916149d781614a48565b6149e45f19831415613bf4565b841015614992576149f490611f9d565b5f935b808510614a0f575061184e92935061497a81836150e1565b90614a2e81614a20600193866150e1565b906109285f198314156148f2565b940193906149f7565b60ff166001019060ff8211611e4457565b90614a535f8361512f565b9160ff8316928315614b8157614a775f610928614a71855194614a37565b60ff1690565b11614b78575f60028403614ace5750614ac7614ab4614aae61184e93614a9c5f611f9d565b01602001516001600160f01b03191690565b60f01c90565b61ff0060ff8260081c169160081b161790565b61ffff1690565b60048403614b385750614b2f614b05614aff61184e93614aed5f611f9d565b01602001516001600160e01b03191690565b60e01c90565b600881811c62ff00ff1691901b63ff00ff001617601081811b63ffff00001691901c61ffff161790565b63ffffffff1690565b929060088214614b4757509190565b61184e9193506141df614b726141d392614b605f611f9d565b01602001516001600160c01b03191690565b60c01c90565b505f1991505f90565b50614b9b91925061460b5f614b95926140d2565b60f81c90565b9060ff5f921690565b90614bb060088361512f565b9160ff8316928315614c3e57614bcf6008610928614a71855194614a37565b11614b78575f60028403614bf55750614ac7614ab4614aae61184e93614a9c6008611f9d565b60048403614c155750614b2f614b05614aff61184e93614aed6008611f9d565b929060088214614c2457509190565b61184e9193506141df614b726141d392614b606008611f9d565b50614b9b91925061460b6008614b95926140d2565b919091614c60838261512f565b9260ff8416938415614d0057614c7e82610928614a71865194614a37565b11614cf5575f60028503614ca35750614ab4614aae61184e93614a9c614ac794611f9d565b60048503614cc25750614b05614aff61184e93614aed614b2f94611f9d565b93919060088314614cd4575b50509190565b614ced929450614b726141d392614b606141df93611f9d565b915f80614cce565b505f1992505f919050565b50614b9b92935061460b90614b95926140d2565b5f614d2760209260405191828092611eaf565b039060025afa15610670575f614d5b6020926105818351610573604051938285938985015260408401526060830190611eaf565b039060025afa15610670575f5190565b9161418061184e9493602093611eaf565b919091815160408114908115614e49575b5015614e04575f92614db7614da28594613f51565b91610573604051938492602084019687614d6b565b51906102005afa614dc6613963565b81614df8575b81614dd5575090565b600160f81b91506001600160f81b031990614df39061460b906140c2565b161490565b80516020149150614dcc565b60405162461bcd60e51b815260206004820152601860248201527f496e76616c6964207369676e6174757265206c656e67746800000000000000006044820152606490fd5b60419150145f614d8d565b614e5f600354610f2a565b60148101808211611e44578082614e7d921190816146e05750613d15565b604051916054830160405260148352018082036034602083019201915b828110614ef35750505060208151910151906bffffffffffffffffffffffff1982169160148210614ece575b505060601c90565b6bffffffffffffffffffffffff1960149290920360031b82901b161690505f80614ec6565b805182820152602001614e9a565b969483869482949a9896939a6040519b8c9b63ffffffff60e01b1660208d015261ffff60f01b1660248c015260268b0137880191602683015f81523701602601915f83528237019063ffffffff60e01b16815203601b1981018252600401614f699082610393565b61184e906150c4565b90614f7c91615198565b5f198214614faa57816025019182602511611e44570160258101809211611e4457602901809111611e445790565b50505f1990565b90614fbc8183614c53565b92905f1981146150425760010180600111611e44579291905f915b838310614fe5575050505090565b90919293808201808311611e4457614ffd9084614c53565b91905f19811461503657806001019283600111611e44576001910101809211611e445760019161502c91611fb9565b9493019190614fd7565b505050505050505f1990565b505050505f1990565b65ffff0000ffff67ffffffffffff000067ff00ff00ff00ff008360081c9360081b169264ff000000ff65ffff0000ff0065ffffffffffff67ffffffffffffff00871666ff00ff00ff00ff85161760101c16951691161760101b1691161767ffffffff0000000063ffffffff8260201c169160201b161790565b5f602091828151910160025afa5060205f818160025afa505f5190565b908151816009019081600911611e445710614faa5760080180600811611e445761510a91614c53565b905f198114614faa57806009019182600911611e44576009910101809111611e445790565b9060ff61513c82846140d2565b5160f81c146151915760fe60ff61515383856140d2565b8160f81b90511660f81c161461518a5761517160ff9160fd936140d2565b8160f81b90511660f81c1614615185575f90565b600290565b5050600490565b5050600890565b908151816025019081602511611e4457106151c15760248101809111611e445761145091614c53565b505f19915f915056fe9016d09d72d40fdae2fd8ceac6b6234c7706214fd39c1cd1e609a0528c199300cd5ed15c6e187e77e9aee88184c21f4f2182ab5827cb3b7e07fbedcd63f03300237e158222e3e6968b72b9db0d8043aacf074ad9f650f0d1606b4d82ee432c00","linkReferences":{}},"methodIdentifiers":{"CODESEP_POS()":"b2497e70","EPOCH()":"a0dc2758","INPUT_INDEX()":"428bcd35","KEY_VERSION()":"1369ac3e","LIGHT_CLIENT()":"e613ae00","PAYOUT_ANCHOR_OUTPUT_AMOUNT()":"2ad93d6f","SAT_TO_WEI()":"fdecdf53","SCHNORR_VERIFIER_PRECOMPILE()":"9a4f308d","SIGHASH_DEFAULT_HASH_TYPE()":"89f40ef9","SIGHASH_SINGLE_ANYONECANPAY_HASH_TYPE()":"6cf7d641","SPEND_TYPE_EXT()":"23dacd29","SPEND_TYPE_NO_EXT()":"092ac5d4","SYSTEM_CALLER()":"d761753e","acceptOwnership()":"79ba5097","batchWithdraw(bytes32[],bytes4[])":"19854623","deposit((bytes4,bytes2,bytes,bytes,bytes,bytes4),(bytes,uint256,uint256),bytes32)":"fb11d7b9","depositAmount()":"419759f5","depositPrefix()":"5b4f894d","depositSuffix()":"8752b6b2","depositTxIds(uint256)":"06592167","failedDepositVault()":"a670e7ed","getAggregatedKey()":"3c918b6c","getWithdrawalCount()":"781952a8","initialize(bytes,bytes,uint256)":"41260137","initialized()":"158ef93e","operator()":"570ca735","optimisticWithdrawAmount()":"709212aa","owner()":"8da5cb5b","pause()":"8456cb59","paused()":"5c975abb","pendingOwner()":"e30c3978","processedTxIds(bytes32)":"4379caa5","renounceOwnership()":"715018a6","replaceDeposit((bytes4,bytes2,bytes,bytes,bytes,bytes4),(bytes,uint256,uint256),uint256,bytes32)":"2594f107","replacePrefix()":"6b0b5a94","replaceSuffix()":"f42cb4fc","safeWithdraw((bytes4,bytes2,bytes,bytes,bytes,bytes4),(bytes,uint256,uint256),(bytes4,bytes2,bytes,bytes,bytes,bytes4),bytes,bytes)":"9072f747","setDepositScript(bytes,bytes)":"f8e655d2","setFailedDepositVault(address)":"85fb7151","setOperator(address)":"b3ab15fb","setOptimisticWithdrawAmount(uint256)":"3bb0a3ee","setReplaceScript(bytes,bytes)":"7ec9732a","transferOwnership(address)":"f2fde38b","unpause()":"3f4ba83a","usedWithdrawalUTXO(bytes32)":"656e7dd4","withdraw(bytes32,bytes4)":"8786dba7","withdrawalUTXOs(uint256)":"471ba1e3"},"id":46}