{"abi":[{"type":"function","name":"CODESEP_POS","inputs":[],"outputs":[{"name":"","type":"bytes","internalType":"bytes"}],"stateMutability":"view"},{"type":"function","name":"EPOCH","inputs":[],"outputs":[{"name":"","type":"bytes","internalType":"bytes"}],"stateMutability":"view"},{"type":"function","name":"INPUT_INDEX","inputs":[],"outputs":[{"name":"","type":"bytes","internalType":"bytes"}],"stateMutability":"view"},{"type":"function","name":"KEY_VERSION","inputs":[],"outputs":[{"name":"","type":"bytes","internalType":"bytes"}],"stateMutability":"view"},{"type":"function","name":"LIGHT_CLIENT","inputs":[],"outputs":[{"name":"","type":"address","internalType":"contract BitcoinLightClient"}],"stateMutability":"view"},{"type":"function","name":"PAYOUT_ANCHOR_OUTPUT_AMOUNT","inputs":[],"outputs":[{"name":"","type":"uint256","internalType":"uint256"}],"stateMutability":"view"},{"type":"function","name":"SAT_TO_WEI","inputs":[],"outputs":[{"name":"","type":"uint256","internalType":"uint256"}],"stateMutability":"view"},{"type":"function","name":"SCHNORR_VERIFIER_PRECOMPILE","inputs":[],"outputs":[{"name":"","type":"address","internalType":"address"}],"stateMutability":"view"},{"type":"function","name":"SIGHASH_DEFAULT_HASH_TYPE","inputs":[],"outputs":[{"name":"","type":"bytes","internalType":"bytes"}],"stateMutability":"view"},{"type":"function","name":"SIGHASH_SINGLE_ANYONECANPAY_HASH_TYPE","inputs":[],"outputs":[{"name":"","type":"bytes","internalType":"bytes"}],"stateMutability":"view"},{"type":"function","name":"SPEND_TYPE_EXT","inputs":[],"outputs":[{"name":"","type":"bytes","internalType":"bytes"}],"stateMutability":"view"},{"type":"function","name":"SPEND_TYPE_NO_EXT","inputs":[],"outputs":[{"name":"","type":"bytes","internalType":"bytes"}],"stateMutability":"view"},{"type":"function","name":"SYSTEM_CALLER","inputs":[],"outputs":[{"name":"","type":"address","internalType":"address"}],"stateMutability":"view"},{"type":"function","name":"acceptOwnership","inputs":[],"outputs":[],"stateMutability":"nonpayable"},{"type":"function","name":"batchWithdraw","inputs":[{"name":"txIds","type":"bytes32[]","internalType":"bytes32[]"},{"name":"outputIds","type":"bytes4[]","internalType":"bytes4[]"}],"outputs":[],"stateMutability":"payable"},{"type":"function","name":"deposit","inputs":[{"name":"moveTx","type":"tuple","internalType":"struct Bridge.Transaction","components":[{"name":"version","type":"bytes4","internalType":"bytes4"},{"name":"flag","type":"bytes2","internalType":"bytes2"},{"name":"vin","type":"bytes","internalType":"bytes"},{"name":"vout","type":"bytes","internalType":"bytes"},{"name":"witness","type":"bytes","internalType":"bytes"},{"name":"locktime","type":"bytes4","internalType":"bytes4"}]},{"name":"proof","type":"tuple","internalType":"struct Bridge.MerkleProof","components":[{"name":"intermediateNodes","type":"bytes","internalType":"bytes"},{"name":"blockHeight","type":"uint256","internalType":"uint256"},{"name":"index","type":"uint256","internalType":"uint256"}]},{"name":"shaScriptPubkeys","type":"bytes32","internalType":"bytes32"}],"outputs":[],"stateMutability":"nonpayable"},{"type":"function","name":"depositAmount","inputs":[],"outputs":[{"name":"","type":"uint256","internalType":"uint256"}],"stateMutability":"view"},{"type":"function","name":"depositPrefix","inputs":[],"outputs":[{"name":"","type":"bytes","internalType":"bytes"}],"stateMutability":"view"},{"type":"function","name":"depositSuffix","inputs":[],"outputs":[{"name":"","type":"bytes","internalType":"bytes"}],"stateMutability":"view"},{"type":"function","name":"depositTxIds","inputs":[{"name":"","type":"uint256","internalType":"uint256"}],"outputs":[{"name":"","type":"bytes32","internalType":"bytes32"}],"stateMutability":"view"},{"type":"function","name":"failedDepositVault","inputs":[],"outputs":[{"name":"","type":"address","internalType":"address"}],"stateMutability":"view"},{"type":"function","name":"getAggregatedKey","inputs":[],"outputs":[{"name":"","type":"bytes","internalType":"bytes"}],"stateMutability":"view"},{"type":"function","name":"getWithdrawalCount","inputs":[],"outputs":[{"name":"","type":"uint256","internalType":"uint256"}],"stateMutability":"view"},{"type":"function","name":"initialize","inputs":[{"name":"_depositPrefix","type":"bytes","internalType":"bytes"},{"name":"_depositSuffix","type":"bytes","internalType":"bytes"},{"name":"_depositAmount","type":"uint256","internalType":"uint256"}],"outputs":[],"stateMutability":"nonpayable"},{"type":"function","name":"initialized","inputs":[],"outputs":[{"name":"","type":"bool","internalType":"bool"}],"stateMutability":"view"},{"type":"function","name":"operator","inputs":[],"outputs":[{"name":"","type":"address","internalType":"address"}],"stateMutability":"view"},{"type":"function","name":"optimisticWithdrawAmountSats","inputs":[],"outputs":[{"name":"","type":"uint256","internalType":"uint256"}],"stateMutability":"view"},{"type":"function","name":"owner","inputs":[],"outputs":[{"name":"","type":"address","internalType":"address"}],"stateMutability":"view"},{"type":"function","name":"pause","inputs":[],"outputs":[],"stateMutability":"nonpayable"},{"type":"function","name":"paused","inputs":[],"outputs":[{"name":"","type":"bool","internalType":"bool"}],"stateMutability":"view"},{"type":"function","name":"pendingOwner","inputs":[],"outputs":[{"name":"","type":"address","internalType":"address"}],"stateMutability":"view"},{"type":"function","name":"processedTxIds","inputs":[{"name":"","type":"bytes32","internalType":"bytes32"}],"outputs":[{"name":"","type":"bool","internalType":"bool"}],"stateMutability":"view"},{"type":"function","name":"renounceOwnership","inputs":[],"outputs":[],"stateMutability":"nonpayable"},{"type":"function","name":"replaceDeposit","inputs":[{"name":"replaceTx","type":"tuple","internalType":"struct Bridge.Transaction","components":[{"name":"version","type":"bytes4","internalType":"bytes4"},{"name":"flag","type":"bytes2","internalType":"bytes2"},{"name":"vin","type":"bytes","internalType":"bytes"},{"name":"vout","type":"bytes","internalType":"bytes"},{"name":"witness","type":"bytes","internalType":"bytes"},{"name":"locktime","type":"bytes4","internalType":"bytes4"}]},{"name":"proof","type":"tuple","internalType":"struct Bridge.MerkleProof","components":[{"name":"intermediateNodes","type":"bytes","internalType":"bytes"},{"name":"blockHeight","type":"uint256","internalType":"uint256"},{"name":"index","type":"uint256","internalType":"uint256"}]},{"name":"idToReplace","type":"uint256","internalType":"uint256"},{"name":"shaScriptPubkeys","type":"bytes32","internalType":"bytes32"}],"outputs":[],"stateMutability":"nonpayable"},{"type":"function","name":"replacePrefix","inputs":[],"outputs":[{"name":"","type":"bytes","internalType":"bytes"}],"stateMutability":"view"},{"type":"function","name":"replaceSuffix","inputs":[],"outputs":[{"name":"","type":"bytes","internalType":"bytes"}],"stateMutability":"view"},{"type":"function","name":"safeWithdraw","inputs":[{"name":"prepareTx","type":"tuple","internalType":"struct Bridge.Transaction","components":[{"name":"version","type":"bytes4","internalType":"bytes4"},{"name":"flag","type":"bytes2","internalType":"bytes2"},{"name":"vin","type":"bytes","internalType":"bytes"},{"name":"vout","type":"bytes","internalType":"bytes"},{"name":"witness","type":"bytes","internalType":"bytes"},{"name":"locktime","type":"bytes4","internalType":"bytes4"}]},{"name":"prepareProof","type":"tuple","internalType":"struct Bridge.MerkleProof","components":[{"name":"intermediateNodes","type":"bytes","internalType":"bytes"},{"name":"blockHeight","type":"uint256","internalType":"uint256"},{"name":"index","type":"uint256","internalType":"uint256"}]},{"name":"payoutTx","type":"tuple","internalType":"struct Bridge.Transaction","components":[{"name":"version","type":"bytes4","internalType":"bytes4"},{"name":"flag","type":"bytes2","internalType":"bytes2"},{"name":"vin","type":"bytes","internalType":"bytes"},{"name":"vout","type":"bytes","internalType":"bytes"},{"name":"witness","type":"bytes","internalType":"bytes"},{"name":"locktime","type":"bytes4","internalType":"bytes4"}]},{"name":"blockHeader","type":"bytes","internalType":"bytes"},{"name":"withdrawalAddressPubKey","type":"bytes","internalType":"bytes"}],"outputs":[],"stateMutability":"payable"},{"type":"function","name":"setDepositScript","inputs":[{"name":"_depositPrefix","type":"bytes","internalType":"bytes"},{"name":"_depositSuffix","type":"bytes","internalType":"bytes"}],"outputs":[],"stateMutability":"nonpayable"},{"type":"function","name":"setFailedDepositVault","inputs":[{"name":"_failedDepositVault","type":"address","internalType":"address"}],"outputs":[],"stateMutability":"nonpayable"},{"type":"function","name":"setOperator","inputs":[{"name":"_operator","type":"address","internalType":"address"}],"outputs":[],"stateMutability":"nonpayable"},{"type":"function","name":"setOptimisticWithdrawAmountSats","inputs":[{"name":"_optimisticWithdrawAmountSats","type":"uint256","internalType":"uint256"}],"outputs":[],"stateMutability":"nonpayable"},{"type":"function","name":"setReplaceScript","inputs":[{"name":"_replacePrefix","type":"bytes","internalType":"bytes"},{"name":"_replaceSuffix","type":"bytes","internalType":"bytes"}],"outputs":[],"stateMutability":"nonpayable"},{"type":"function","name":"transferOwnership","inputs":[{"name":"newOwner","type":"address","internalType":"address"}],"outputs":[],"stateMutability":"nonpayable"},{"type":"function","name":"unpause","inputs":[],"outputs":[],"stateMutability":"nonpayable"},{"type":"function","name":"usedWithdrawalUTXO","inputs":[{"name":"","type":"bytes32","internalType":"bytes32"}],"outputs":[{"name":"","type":"bool","internalType":"bool"}],"stateMutability":"view"},{"type":"function","name":"withdraw","inputs":[{"name":"txId","type":"bytes32","internalType":"bytes32"},{"name":"outputId","type":"bytes4","internalType":"bytes4"}],"outputs":[],"stateMutability":"payable"},{"type":"function","name":"withdrawalUTXOs","inputs":[{"name":"","type":"uint256","internalType":"uint256"}],"outputs":[{"name":"txId","type":"bytes32","internalType":"bytes32"},{"name":"outputId","type":"bytes4","internalType":"bytes4"}],"stateMutability":"view"},{"type":"event","name":"Deposit","inputs":[{"name":"wtxId","type":"bytes32","indexed":false,"internalType":"bytes32"},{"name":"txId","type":"bytes32","indexed":false,"internalType":"bytes32"},{"name":"recipient","type":"address","indexed":false,"internalType":"address"},{"name":"timestamp","type":"uint256","indexed":false,"internalType":"uint256"},{"name":"depositId","type":"uint256","indexed":false,"internalType":"uint256"}],"anonymous":false},{"type":"event","name":"DepositReplaced","inputs":[{"name":"index","type":"uint256","indexed":false,"internalType":"uint256"},{"name":"oldTxId","type":"bytes32","indexed":false,"internalType":"bytes32"},{"name":"newTxId","type":"bytes32","indexed":false,"internalType":"bytes32"}],"anonymous":false},{"type":"event","name":"DepositScriptUpdate","inputs":[{"name":"depositPrefix","type":"bytes","indexed":false,"internalType":"bytes"},{"name":"depositSuffix","type":"bytes","indexed":false,"internalType":"bytes"}],"anonymous":false},{"type":"event","name":"DepositTransferFailed","inputs":[{"name":"wtxId","type":"bytes32","indexed":false,"internalType":"bytes32"},{"name":"txId","type":"bytes32","indexed":false,"internalType":"bytes32"},{"name":"recipient","type":"address","indexed":false,"internalType":"address"},{"name":"timestamp","type":"uint256","indexed":false,"internalType":"uint256"},{"name":"depositId","type":"uint256","indexed":false,"internalType":"uint256"}],"anonymous":false},{"type":"event","name":"FailedDepositVaultUpdated","inputs":[{"name":"oldVault","type":"address","indexed":false,"internalType":"address"},{"name":"newVault","type":"address","indexed":false,"internalType":"address"}],"anonymous":false},{"type":"event","name":"Initialized","inputs":[{"name":"version","type":"uint64","indexed":false,"internalType":"uint64"}],"anonymous":false},{"type":"event","name":"OperatorUpdated","inputs":[{"name":"oldOperator","type":"address","indexed":false,"internalType":"address"},{"name":"newOperator","type":"address","indexed":false,"internalType":"address"}],"anonymous":false},{"type":"event","name":"OptimisticWithdrawAmountSet","inputs":[{"name":"amount","type":"uint256","indexed":false,"internalType":"uint256"}],"anonymous":false},{"type":"event","name":"OwnershipTransferStarted","inputs":[{"name":"previousOwner","type":"address","indexed":true,"internalType":"address"},{"name":"newOwner","type":"address","indexed":true,"internalType":"address"}],"anonymous":false},{"type":"event","name":"OwnershipTransferred","inputs":[{"name":"previousOwner","type":"address","indexed":true,"internalType":"address"},{"name":"newOwner","type":"address","indexed":true,"internalType":"address"}],"anonymous":false},{"type":"event","name":"Paused","inputs":[{"name":"account","type":"address","indexed":false,"internalType":"address"}],"anonymous":false},{"type":"event","name":"ReplaceScriptUpdate","inputs":[{"name":"replacePrefix","type":"bytes","indexed":false,"internalType":"bytes"},{"name":"replaceSuffix","type":"bytes","indexed":false,"internalType":"bytes"}],"anonymous":false},{"type":"event","name":"SafeWithdrawal","inputs":[{"name":"payoutTx","type":"tuple","indexed":false,"internalType":"struct Bridge.Transaction","components":[{"name":"version","type":"bytes4","internalType":"bytes4"},{"name":"flag","type":"bytes2","internalType":"bytes2"},{"name":"vin","type":"bytes","internalType":"bytes"},{"name":"vout","type":"bytes","internalType":"bytes"},{"name":"witness","type":"bytes","internalType":"bytes"},{"name":"locktime","type":"bytes4","internalType":"bytes4"}]},{"name":"spentUtxo","type":"tuple","indexed":false,"internalType":"struct Bridge.UTXO","components":[{"name":"txId","type":"bytes32","internalType":"bytes32"},{"name":"outputId","type":"bytes4","internalType":"bytes4"}]},{"name":"index","type":"uint256","indexed":false,"internalType":"uint256"}],"anonymous":false},{"type":"event","name":"Unpaused","inputs":[{"name":"account","type":"address","indexed":false,"internalType":"address"}],"anonymous":false},{"type":"event","name":"Withdrawal","inputs":[{"name":"utxo","type":"tuple","indexed":false,"internalType":"struct Bridge.UTXO","components":[{"name":"txId","type":"bytes32","internalType":"bytes32"},{"name":"outputId","type":"bytes4","internalType":"bytes4"}]},{"name":"index","type":"uint256","indexed":false,"internalType":"uint256"},{"name":"timestamp","type":"uint256","indexed":false,"internalType":"uint256"}],"anonymous":false},{"type":"error","name":"EnforcedPause","inputs":[]},{"type":"error","name":"ExpectedPause","inputs":[]},{"type":"error","name":"InvalidInitialization","inputs":[]},{"type":"error","name":"NotInitializing","inputs":[]},{"type":"error","name":"OwnableInvalidOwner","inputs":[{"name":"owner","type":"address","internalType":"address"}]},{"type":"error","name":"OwnableUnauthorizedAccount","inputs":[{"name":"account","type":"address","internalType":"address"}]}],"bytecode":{"object":"0x6080806040523460155761522c908161001a8239f35b5f80fdfe60806040526004361015610011575f80fd5b5f3560e01c806306592167146102f5578063092ac5d41461025a5780631369ac3e1461025a578063158ef93e146102f057806319854623146102eb57806323dacd29146102e65780632594f107146102e15780632ad93d6f146102dc5780633c918b6c146102d75780633f4ba83a146102d257806341260137146102cd578063419759f5146102c8578063428bcd35146102c35780634379caa5146102be578063471ba1e3146102b9578063570ca735146102b45780635b4f894d146102af5780635c975abb146102aa578063656e7dd4146102a55780636b0b5a94146102a05780636cf7d6411461029b5780636e0918f214610296578063715018a614610291578063781952a81461028c57806379ba5097146102875780637ec9732a146102825780638456cb591461027d57806385fb7151146102785780638752b6b2146102735780638786dba71461026e57806389f40ef91461025a5780638da5cb5b146102695780639072f747146102645780639a4f308d1461025f578063a0dc27581461025a578063a670e7ed14610255578063ad50392014610250578063b2497e701461024b578063b3ab15fb14610246578063d761753e14610241578063e30c39781461023c578063e613ae0014610237578063f2fde38b14610232578063f42cb4fc1461022d578063f8e655d214610228578063fb11d7b9146102235763fdecdf531461021e575f80fd5b611dc1565b611cd0565b611b76565b611b5b565b611ae2565b611ac0565b611a8c565b611a5e565b611989565b61196e565b61192e565b611906565b61042a565b6118ea565b611835565b6117ad565b6116df565b6116a7565b6115ef565b611521565b611438565b61133e565b611321565b6112a4565b6111fd565b6111e2565b6111a8565b611179565b61114b565b611130565b610e59565b610e02565b610dd3565b610db8565b610d80565b610b02565b610a1c565b6109f9565b6109de565b6106cb565b610694565b6104a6565b610455565b61032b565b634e487b7160e01b5f52603260045260245ffd5b6008548110156103265760085f5260205f2001905f90565b6102fa565b3461037b57602036600319011261037b5760043560085481101561037b5760209060085f527ff3f7a9fe364faab93b216da50a3214154f22a0a2b415b23a84c8169e8b636ee30154604051908152f35b5f80fd5b634e487b7160e01b5f52604160045260245ffd5b90601f801991011681019081106001600160401b038211176103b457604052565b61037f565b604051906103c8604083610393565b565b6001600160401b0381116103b457601f01601f191660200190565b604051906103f4604083610393565b600182525f6020830152565b602060409281835280519182918282860152018484015e5f828201840152601f01601f1916010190565b3461037b575f36600319011261037b576104516104456103e5565b60405191829182610400565b0390f35b3461037b575f36600319011261037b57602060ff5f54166040519015158152f35b9181601f8401121561037b578235916001600160401b03831161037b576020808501948460051b01011161037b57565b604036600319011261037b576004356001600160401b03811161037b576104d1903690600401610476565b6024356001600160401b03811161037b576104f0903690600401610476565b92906104fa6139ee565b610505848414611de0565b61051b61051484600154611e32565b3414611e4a565b600754935f5b84811061052a57005b60205f61058d61053b848989611e96565b3561058161055261054d87898b611e96565b611ea6565b6040518681019384526001600160e01b031990911660208401529182906024015b03601f198101835282610393565b60405191828092611eb0565b039060025afa15610670576001906105e96105dc5f516105ce6105c96105c56105be845f52600a60205260405f2090565b5460ff1690565b1590565b611ecd565b5f52600a60205260405f2090565b805460ff19166001179055565b7f3311a04a346a103ac115cca33028a2bc82f1964805860d0d3fc84a2772496ada610615828888611e96565b3561064361062761054d85888a611e96565b61062f6103b9565b9283526001600160e01b0319166020830152565b61064c81611f0d565b610656838a611fba565b610667604051928392429184611fc7565b0390a101610521565b611ec2565b60405190610684604083610393565b60018252600160f91b6020830152565b3461037b575f36600319011261037b57610451610445610675565b908160c091031261037b5790565b9081606091031261037b5790565b3461037b57608036600319011261037b576004356001600160401b03811161037b576106fb9036906004016106af565b6024356001600160401b03811161037b5761071a9036906004016106bd565b906044356064355f5490929060081c6001600160a01b031633036109995761086a6109949161079960016107917f4d7c644a48da4c7857af62a00bad9806f0388564f22955ed846d938c244047f0986107766008548910611ff8565b61078b610784600554610e84565b1515612034565b84613a98565b905014612080565b604081016108546108646107bf6107ba6107b385876120c5565b36916117e1565b613c4c565b9761085c606086019561082e6107f56107db6107b38a856120c5565b6107ef6107e88b866120c5565b90506120f7565b90613d58565b9361080e6108096107b360808601866120c5565b61405a565b9c8d61081985611ea6565b9060a086019761082889611ea6565b9361418b565b61084c61084461083d83611ea6565b97836120c5565b9890926120c5565b959093611ea6565b9636916117e1565b9236916117e1565b9161439e565b61088a6108856105c56105be845f52600960205260405f2090565b612130565b61089f6105dc825f52600960205260405f2090565b61097761096f6108ed6108be6108b48761030e565b90549060031b1c90565b966108d2856108cc8961030e565b9061217c565b6108e860036108e083614a49565b905014612199565b61442f565b61096a61096561095d610901600554610e84565b61094c610947610939610915600654610e84565b93610933895161092d8761092885611f74565b611fba565b146121dd565b88613de0565b610941610ebc565b906145cf565b612221565b610957818651612123565b85613fdc565b610941610f71565b61226d565b61467a565b9485146122b9565b604051938493846040919493926060820195825260208201520152565b0390a1005b60405162461bcd60e51b815260206004820152601a60248201527f63616c6c6572206973206e6f7420746865206f70657261746f720000000000006044820152606490fd5b3461037b575f36600319011261037b57602060405160f08152f35b3461037b575f36600319011261037b57610451610445610a17611006565b613e2e565b3461037b575f36600319011261037b575f5160206151cc5f395f51905f52546001600160a01b031633148015610abc575b610a569061230f565b5f5160206151ec5f395f51905f525460ff811615610aad5760ff19165f5160206151ec5f395f51905f52557f5db9ee0a495bf2e6ff9c91a7834c1ba4fdd244a5e8aa4e537bd38aeae4b073aa6020604051338152a1005b638dfc202b60e01b5f5260045ffd5b505f543360089190911c6001600160a01b031614610a4d565b9181601f8401121561037b578235916001600160401b03831161037b576020838186019501011161037b57565b3461037b57606036600319011261037b576004356001600160401b03811161037b57610b32903690600401610ad5565b6024356001600160401b03811161037b57610b51903690600401610ad5565b6044359273deaddeaddeaddeaddeaddeaddeaddeaddeaddead3303610d3b577fb5d41f23e03dbe9f07303369446a4eff88ec21acd7ffc066d287ffd56f215f8594610cf07f80bd1fdfe157286ce420ee763f91748455b249605748e5df12dad9844402bafc93610c4a61099497610bd4610bcf6105c55f5460ff1690565b612367565b610bdf8115156123b3565b610bec60228710156123ff565b610bfd6402540be40082061561245f565b610c456402540be400820491610c1c6001600160401b038411156124c0565b610c2c600160ff195f5416175f55565b610c3688886125d1565b610c40858b6126b2565b600155565b612105565b95610c5487600b55565b5f8054610100600160a81b03191674deaddeaddeaddeaddeaddeaddeaddeaddeaddead00179055600280546001600160a01b0319166007603160981b011790557ffbe5b6cbafb274f445d7fed869dc77a838d8243a22c460de156560e8857cad0360405180610ce1819073deaddeaddeaddeaddeaddeaddeaddeaddeaddead602060408401935f81520152565b0390a160405194859485612951565b0390a1604080515f81526007603160981b0160208201527f79250b96878fd457364d1c1b77a660973c4f4ab67bda5e2fdb42caaa4d515f9d9190a16040519081529081906020820190565b60405162461bcd60e51b815260206004820152601f60248201527f63616c6c6572206973206e6f74207468652073797374656d2063616c6c6572006044820152606490fd5b3461037b575f36600319011261037b576020600154604051908152f35b60405190610dac604083610393565b600482525f6020830152565b3461037b575f36600319011261037b57610451610445610d9d565b3461037b57602036600319011261037b576004355f526009602052602060ff60405f2054166040519015158152f35b3461037b57602036600319011261037b5760043560075481101561037b576007548110156103265760409060075f5260205f209060011b016001815491015460e01b825191825263ffffffff60e01b166020820152f35b3461037b575f36600319011261037b575f5460405160089190911c6001600160a01b03168152602090f35b90600182811c92168015610eb2575b6020831014610e9e57565b634e487b7160e01b5f52602260045260245ffd5b91607f1691610e93565b604051905f8260055491610ecf83610e84565b8083529260018116908115610f525750600114610ef3575b6103c892500383610393565b5060055f90815290917f036b6384b5eca791c62761152d0c79bb0604c104a5fb6f4eb0703f3154bb3db05b818310610f365750509060206103c892820101610ee7565b6020919350806001915483858901015201910190918492610f1e565b602092506103c894915060ff191682840152151560051b820101610ee7565b604051905f8260065491610f8483610e84565b8083529260018116908115610f525750600114610fa7576103c892500383610393565b5060065f90815290917ff652222313e28459528d920b65115c16c04f3efc82aaedc97be59f3f377c0d3f5b818310610fea5750509060206103c892820101610ee7565b6020919350806001915483858901015201910190918492610fd2565b604051905f826003549161101983610e84565b8083529260018116908115610f52575060011461103c576103c892500383610393565b5060035f90815290917fc2575a0e9e593c00f959f8c92f12db2869c3395a3b0502d05e2516446f71f85b5b81831061107f5750509060206103c892820101610ee7565b6020919350806001915483858901015201910190918492611067565b604051905f82600454916110ae83610e84565b8083529260018116908115610f5257506001146110d1576103c892500383610393565b5060045f90815290917f8a35acfbc15ff81a39ae7d344fd709f28e8600b4aa8c65c6b64bfe7fe36bd19b5b8183106111145750509060206103c892820101610ee7565b60209193508060019154838589010152019101909184926110fc565b3461037b575f36600319011261037b57610451610445611006565b3461037b575f36600319011261037b57602060ff5f5160206151ec5f395f51905f5254166040519015158152f35b3461037b57602036600319011261037b576004355f52600a602052602060ff60405f2054166040519015158152f35b3461037b575f36600319011261037b57610451610445610ebc565b604051906111d2604083610393565b60018252608360f81b6020830152565b3461037b575f36600319011261037b576104516104456111c3565b3461037b57602036600319011261037b576004356112196146ed565b8015611250576020817fb5d41f23e03dbe9f07303369446a4eff88ec21acd7ffc066d287ffd56f215f8592600b55604051908152a1005b60405162461bcd60e51b815260206004820152602660248201527f4f7074696d697374696320776974686472617720616d6f756e742063616e6e6f60448201526507420626520360d41b6064820152608490fd5b3461037b575f36600319011261037b576112bc6146ed565b5f51602061520c5f395f51905f5280546001600160a01b03199081169091555f5160206151cc5f395f51905f52805491821690555f906001600160a01b03167f8be0079c531659141344cd1fd0a4f28419497f9722a3daafe3b4186f6b6457e08280a3005b3461037b575f36600319011261037b576020600754604051908152f35b3461037b575f36600319011261037b575f51602061520c5f395f51905f5254336001600160a01b03909116036113d5575f51602061520c5f395f51905f5280546001600160a01b03199081169091555f5160206151cc5f395f51905f5280543392811683179091556001600160a01b03167f8be0079c531659141344cd1fd0a4f28419497f9722a3daafe3b4186f6b6457e05f80a3005b63118cdaa760e01b5f523360045260245ffd5b604060031982011261037b576004356001600160401b03811161037b578161141291600401610ad5565b92909291602435906001600160401b03821161037b5761143491600401610ad5565b9091565b3461037b57611446366113e8565b92906114506146ed565b602283106114c8577f6c9ac69a5e351d3e7ac9be95040d29a264d1ce6a409ca9f042c64c66c3f2a23a93610994916114a8611497611492610a173689896117e1565b61470d565b6114a2611492612304565b14612978565b6114b28585612787565b6114bc828261285c565b60405194859485612951565b60405162461bcd60e51b815260206004820152602b60248201527f5265706c61636520736372697074206d757374206265206c6f6e67657220746860448201526a616e20333420627974657360a81b6064820152608490fd5b3461037b575f36600319011261037b575f5160206151cc5f395f51905f52546001600160a01b0316331480156115b4575b61155b9061230f565b6115636139ee565b600160ff195f5160206151ec5f395f51905f525416175f5160206151ec5f395f51905f52557f62e78cea01bee320cd4e420270b5ea74000d11b0c9f74754ebdbfc544b05a2586020604051338152a1005b505f543360089190911c6001600160a01b031614611552565b602090600319011261037b576004356001600160a01b038116810361037b5790565b3461037b576115fd366115cd565b6116056146ed565b6001600160a01b03811690811561167057600280546001600160a01b031981169093179055604080516001600160a01b0393841681529290911660208301527f79250b96878fd457364d1c1b77a660973c4f4ab67bda5e2fdb42caaa4d515f9d919081908101610994565b60405162461bcd60e51b815260206004820152600f60248201526e496e76616c6964206164647265737360881b6044820152606490fd5b3461037b575f36600319011261037b5761045161044561109b565b6001600160e01b031981160361037b57565b35906103c8826116c2565b604036600319011261037b576024356004356116fa826116c2565b6117026139ee565b61170f6001543414611e4a565b60205f61173d6040516105818161057388888884019091602492825263ffffffff60e01b1660208201520190565b039060025afa15610670576117907f3311a04a346a103ac115cca33028a2bc82f1964805860d0d3fc84a2772496ada926106276105dc5f516105ce6105c96105c56105be845f52600a60205260405f2090565b60075461179c82611f0d565b610994604051928392429184611fc7565b3461037b575f36600319011261037b575f5160206151cc5f395f51905f52546040516001600160a01b039091168152602090f35b9291926117ed826103ca565b916117fb6040519384610393565b82948184528183011161037b578281602093845f960137010152565b9080601f8301121561037b57816020611832933591016117e1565b90565b60a036600319011261037b576004356001600160401b03811161037b576118609036906004016106af565b6024356001600160401b03811161037b5761187f9036906004016106bd565b906044356001600160401b03811161037b5761189f9036906004016106af565b6064356001600160401b03811161037b576118be903690600401610ad5565b91608435946001600160401b03861161037b576118e26118e8963690600401611817565b94613207565b005b3461037b575f36600319011261037b5760206040516102008152f35b3461037b575f36600319011261037b576002546040516001600160a01b039091168152602090f35b3461037b575f36600319011261037b576020600b54604051908152f35b6040519061195a604083610393565b600482526001600160e01b03196020830152565b3461037b575f36600319011261037b5761045161044561194b565b3461037b57611997366115cd565b61199f6146ed565b6001600160a01b03811615611a19575f8054610100600160a81b03600884811b91909116610100600160a81b0319831617909255604080516001600160a01b039290931c82168352921660208201527ffbe5b6cbafb274f445d7fed869dc77a838d8243a22c460de156560e8857cad039181908101610994565b60405162461bcd60e51b815260206004820152601f60248201527f4f70657261746f722063616e6e6f74206265207a65726f2061646472657373006044820152606490fd5b3461037b575f36600319011261037b57602060405173deaddeaddeaddeaddeaddeaddeaddeaddeaddead8152f35b3461037b575f36600319011261037b575f51602061520c5f395f51905f52546040516001600160a01b039091168152602090f35b3461037b575f36600319011261037b576040516001603160981b018152602090f35b3461037b57611af0366115cd565b611af86146ed565b5f51602061520c5f395f51905f5280546001600160a01b0319166001600160a01b039283169081179091555f5160206151cc5f395f51905f52549091167f38d16b8cac22d99fc7c124b9cd0de2d3fa1faef420bfe791d8c362d765e227005f80a3005b3461037b575f36600319011261037b57610451610445610f71565b3461037b57611b84366113e8565b611b8f9391936146ed565b611b9c60228410156123ff565b6001600160401b0383116103b457611bbe83611bb9600354610e84565b612532565b5f93601f8411600114611c2a579061099491611c1185807f80bd1fdfe157286ce420ee763f91748455b249605748e5df12dad9844402bafc985f91611c1f575b508160011b915f199060031b1c19161790565b6003555b6114bc82826126b2565b90508601355f611bfe565b60035f52601f1984167fc2575a0e9e593c00f959f8c92f12db2869c3395a3b0502d05e2516446f71f85b905f5b818110611cb85750907f80bd1fdfe157286ce420ee763f91748455b249605748e5df12dad9844402bafc968661099495949310611c9f575b5050600185811b01600355611c15565b8501355f19600388901b60f8161c191690555f80611c8f565b85880135835560209788019760019093019201611c57565b3461037b57606036600319011261037b576004356001600160401b03811161037b57611d009036906004016106af565b6024356001600160401b03811161037b57611d1f9036906004016106bd565b6044359073deaddeaddeaddeaddeaddeaddeaddeaddeaddead33148015611da8575b15611d4f576118e8926136ae565b60405162461bcd60e51b815260206004820152602b60248201527f63616c6c6572206973206e6f74207468652073797374656d2063616c6c65722060448201526a37b91037b832b930ba37b960a91b6064820152608490fd5b505f543360089190911c6001600160a01b031614611d41565b3461037b575f36600319011261037b5760206040516402540be4008152f35b15611de757565b60405162461bcd60e51b815260206004820152600f60248201526e098cadccee8d040dad2e6dac2e8c6d608b1b6044820152606490fd5b634e487b7160e01b5f52601160045260245ffd5b81810292918115918404141715611e4557565b611e1e565b15611e5157565b60405162461bcd60e51b815260206004820152601760248201527f496e76616c696420776974686472617720616d6f756e740000000000000000006044820152606490fd5b91908110156103265760051b0190565b35611832816116c2565b805191908290602001825e015f815290565b6040513d5f823e3d90fd5b15611ed457565b60405162461bcd60e51b815260206004820152601160248201527015551613c8185b1c9958591e481d5cd959607a1b6044820152606490fd5b600754600160401b8110156103b457600181016007556007548110156103265760075f5260011b7fa66cc928b5edb82af9bd49922954155ab7b0942694bea4ce44661d9a8736c688016001602091835181550191015160e01c63ffffffff19825416179055565b9060208201809211611e4557565b6009019081600911611e4557565b9060148201809211611e4557565b6001019081600111611e4557565b9060018201809211611e4557565b91908201809211611e4557565b606091949392611fef826080810197602090805183528163ffffffff60e01b91015116910152565b60408201520152565b15611fff57565b60405162461bcd60e51b815260206004820152600d60248201526c092dcecc2d8d2c840d2dcc8caf609b1b6044820152606490fd5b1561203b57565b60405162461bcd60e51b815260206004820152601960248201527f5265706c61636520736372697074206973206e6f7420736574000000000000006044820152606490fd5b1561208757565b60405162461bcd60e51b815260206004820152601660248201527513db9b1e481bdb99481a5b9c1d5d08185b1b1bddd95960521b6044820152606490fd5b903590601e198136030182121561037b57018035906001600160401b03821161037b5760200191813603831361037b57565b5f19810191908211611e4557565b60ef19810191908211611e4557565b601f19810191908211611e4557565b91908203918211611e4557565b1561213757565b60405162461bcd60e51b815260206004820152601c60248201527f7478496420616c7265616479207573656420746f207265706c616365000000006044820152606490fd5b916121959183549060031b91821b915f19901b19161790565b9055565b156121a057565b60405162461bcd60e51b8152602060048201526015602482015274496e76616c6964207769746e657373206974656d7360581b6044820152606490fd5b156121e457565b60405162461bcd60e51b8152602060048201526015602482015274092dcecc2d8d2c840e6c6e4d2e0e840d8cadccee8d605b1b6044820152606490fd5b1561222857565b60405162461bcd60e51b815260206004820152601d60248201527f496e76616c6964207265706c61636520736372697074207072656669780000006044820152606490fd5b1561227457565b60405162461bcd60e51b815260206004820152601d60248201527f496e76616c6964207265706c61636520736372697074207375666669780000006044820152606490fd5b156122c057565b606460405162461bcd60e51b815260206004820152602060248201527f496e76616c6964207478496420746f207265706c6163652070726f76696465646044820152fd5b611832610a17611006565b1561231657565b60405162461bcd60e51b815260206004820152602360248201527f63616c6c6572206973206e6f7420746865206f776e6572206f72206f706572616044820152623a37b960e91b6064820152608490fd5b1561236e57565b60405162461bcd60e51b815260206004820152601f60248201527f436f6e747261637420697320616c726561647920696e697469616c697a6564006044820152606490fd5b156123ba57565b60405162461bcd60e51b815260206004820152601a60248201527f4465706f73697420616d6f756e742063616e6e6f7420626520300000000000006044820152606490fd5b1561240657565b60405162461bcd60e51b815260206004820152602b60248201527f4465706f73697420736372697074206d757374206265206c6f6e67657220746860448201526a616e20333420627974657360a81b6064820152608490fd5b1561246657565b60405162461bcd60e51b815260206004820152602c60248201527f4465706f73697420616d6f756e74206d75737420686176652076616c6964207360448201526b61746f7368692076616c756560a01b6064820152608490fd5b156124c757565b60405162461bcd60e51b815260206004820152603760248201527f4465706f73697420616d6f756e742064697669646564206279205341545f544f60448201527f5f574549206d7573742066697420696e2075696e7436340000000000000000006064820152608490fd5b601f811161253e575050565b60035f5260205f20906020601f840160051c83019310612578575b601f0160051c01905b81811061256d575050565b5f8155600101612562565b9091508190612559565b601f821161258f57505050565b5f5260205f20906020601f840160051c830193106125c7575b601f0160051c01905b8181106125bc575050565b5f81556001016125b1565b90915081906125a8565b91906001600160401b0381116103b4576125f7816125f0600354610e84565b6003612582565b5f601f821160011461263557819061262593945f9261262a575b50508160011b915f199060031b1c19161790565b600355565b013590505f80612611565b60035f52601f198216937fc2575a0e9e593c00f959f8c92f12db2869c3395a3b0502d05e2516446f71f85b915f5b86811061269a5750836001959610612681575b505050811b01600355565b01355f19600384901b60f8161c191690555f8080612676565b90926020600181928686013581550194019101612663565b91906001600160401b0381116103b4576126d8816126d1600454610e84565b6004612582565b5f601f821160011461270a57819061270593945f9261262a5750508160011b915f199060031b1c19161790565b600455565b60045f52601f198216937f8a35acfbc15ff81a39ae7d344fd709f28e8600b4aa8c65c6b64bfe7fe36bd19b915f5b86811061276f5750836001959610612756575b505050811b01600455565b01355f19600384901b60f8161c191690555f808061274b565b90926020600181928686013581550194019101612738565b91906001600160401b0381116103b4576127ad816127a6600554610e84565b6005612582565b5f601f82116001146127df5781906127da93945f9261262a5750508160011b915f199060031b1c19161790565b600555565b60055f52601f198216937f036b6384b5eca791c62761152d0c79bb0604c104a5fb6f4eb0703f3154bb3db0915f5b868110612844575083600195961061282b575b505050811b01600555565b01355f19600384901b60f8161c191690555f8080612820565b9092602060018192868601358155019401910161280d565b91906001600160401b0381116103b4576128828161287b600654610e84565b6006612582565b5f601f82116001146128b45781906128af93945f9261262a5750508160011b915f199060031b1c19161790565b600655565b60065f52601f198216937ff652222313e28459528d920b65115c16c04f3efc82aaedc97be59f3f377c0d3f915f5b8681106129195750836001959610612900575b505050811b01600655565b01355f19600384901b60f8161c191690555f80806128f5565b909260206001819286860135815501940191016128e2565b908060209392818452848401375f828201840152601f01601f1916010190565b929061296a906118329593604086526040860191612931565b926020818503910152612931565b1561297f57565b60405162461bcd60e51b815260206004820152604560248201527f5265706c61636520707265666978206d75737420636f6e7461696e207468652060448201527f73616d652061676772656761746564206b6579206173206465706f73697420706064820152640e4caccd2f60db1b608482015260a490fd5b612a006139ee565b612a0d6001543414611e4a565b60205f612a3b6040516105818161057388888884019091602492825263ffffffff60e01b1660208201520190565b039060025afa1561067057612a8e7f3311a04a346a103ac115cca33028a2bc82f1964805860d0d3fc84a2772496ada926106276105dc5f516105ce6105c96105c56105be845f52600a60205260405f2090565b600754612a9a82611f0d565b612aab604051928392429184611fc7565b0390a1565b15612ab757565b60405162461bcd60e51b815260206004820152601d60248201527f56696e206973206e6f742070726f7065726c7920666f726d61747465640000006044820152606490fd5b15612b0357565b60405162461bcd60e51b815260206004820152601e60248201527f566f7574206973206e6f742070726f7065726c7920666f726d617474656400006044820152606490fd5b9081602091031261037b5751801515810361037b5790565b9796959192612b979460809694612b89938b5260208b015260a060408b015260a08a0191612931565b918783036060890152612931565b930152565b15612ba357565b60405162461bcd60e51b815260206004820152601b60248201527f5472616e73616374696f6e206973206e6f7420696e20626c6f636b00000000006044820152606490fd5b15612bef57565b60405162461bcd60e51b8152602060048201526024808201527f5061796f75742076696e206973206e6f742070726f7065726c7920666f726d616044820152631d1d195960e21b6064820152608490fd5b15612c4757565b60405162461bcd60e51b815260206004820152602860248201527f5061796f75742076696e2073686f756c6420686176652065786163746c79206f6044820152671b99481a5b9c1d5d60c21b6064820152608490fd5b15612ca457565b60405162461bcd60e51b815260206004820152602a60248201527f5061796f757420766f75742073686f756c6420686176652065786163746c79206044820152691bdb99481bdd5d1c1d5d60b21b6064820152608490fd5b15612d0357565b60405162461bcd60e51b815260206004820152602560248201527f5061796f757420766f7574206973206e6f742070726f7065726c7920666f726d604482015264185d1d195960da1b6064820152608490fd5b15612d5d57565b60405162461bcd60e51b815260206004820152602860248201527f5061796f7574207769746e657373206973206e6f742070726f7065726c7920666044820152671bdc9b585d1d195960c21b6064820152608490fd5b15612dba57565b60405162461bcd60e51b815260206004820152603d60248201527f5061796f7574206f75747075742076616c756520646f6573206e6f74206d617460448201527f6368206f7074696d697374696320776974686472617720616d6f756e740000006064820152608490fd5b15612e2c57565b60405162461bcd60e51b815260206004820152602360248201527f496e76616c6964207061796f7574206f757470757420736372697074207075626044820152626b657960e81b6064820152608490fd5b15612e8457565b60405162461bcd60e51b8152602060048201526012602482015271125b9d985b1a59081cdc195b9d081d1e125960721b6044820152606490fd5b15612ec557565b60405162461bcd60e51b815260206004820152601b60248201527f496e76616c6964207370656e74206f7574707574206c656e67746800000000006044820152606490fd5b60405190612f19604083610393565b60018252601160f91b6020830152565b15612f3057565b60405162461bcd60e51b815260206004820152602960248201527f496e76616c6964207370656e74206f757470757420736372697074207075626b6044820152680caf240d8cadccee8d60bb1b6064820152608490fd5b60405190612f96604083610393565b6002825261028960f51b6020830152565b15612fae57565b60405162461bcd60e51b815260206004820152602160248201527f5370656e74206f7574707574206973206e6f7420612050325452206f757470756044820152601d60fa1b6064820152608490fd5b613059979360249b9997956130246130409561301e8f9a9695600896611eb0565b90611eb0565b6001600160e01b03199283168152911660048201520190611eb0565b9182526001600160e01b03191660208201520190611eb0565b6001600160e01b0319909216825260048201520190565b6040519061307f604083610393565b600a8252690a8c2e0a6d2ced0c2e6d60b31b6020830152565b1561309f57565b60405162461bcd60e51b8152602060048201526011602482015270496e76616c6964207369676e617475726560781b6044820152606490fd5b6001600160f01b031981160361037b57565b9035601e198236030181121561037b5701602081359101916001600160401b03821161037b57813603831361037b57565b61320360609295949395608083528035613134816116c2565b6001600160e01b03191660808401526020810135613151816130d8565b61ffff60f01b1660a08401526131e36131d160a06131ca6131aa61318c61317b60408801886130ea565b60c0808c01526101408b0191612931565b6131988a8801886130ea565b8a8303607f190160e08c015290612931565b6131b760808701876130ea565b898303607f19016101008b015290612931565b93016116d4565b6001600160e01b031916610120850152565b8651602084810191909152909601516001600160e01b0319166040830152565b0152565b94919092602061085c956132c39561328e6132858a61323d6132386132336107b36040850180956120c5565b614783565b612ab0565b60a06108648d606081019d8e61326661326161325c6107b384876120c5565b6147fb565b612afc565b61085461327c61327585611ea6565b97856120c5565b989092856120c5565b96909401611ea6565b968792604085840135936132a281806120c5565b929091013592604051988997889763cd4cc08f60e01b895260048901612b60565b03816001603160981b015afa8015610670576132e6915f9161367f575b50612b9c565b604081016132f481836120c5565b36906132ff926117e1565b61330890614783565b61331190612be8565b61331b81836120c5565b3690613326926117e1565b61332f90614a49565b6060840197915061334088856120c5565b369061334b926117e1565b61335490614a49565b916133629150600114612c40565b60011461336e90612c9d565b61337887846120c5565b3690613383926117e1565b61338c906147fb565b61339590612cfc565b60808301916133a483856120c5565b36906133af926117e1565b6133b89061486a565b6133c190612d56565b6133cb90846120c5565b36906133d6926117e1565b6133df90613c4c565b966133ea90846120c5565b36906133f5926117e1565b6133fe9061493f565b9161340990846120c5565b3690613414926117e1565b61341d9061405a565b60208301519094906134319060c01c61504c565b6001600160401b0316600b541461344790612db3565b61345083614ba5565b9061345a90611f82565b906134659185613fdc565b9061346f916145cf565b61347890612e25565b602087015194851461348990612e7d565b60408701516001600160e01b031916956134a2916120c5565b36906134ad926117e1565b8560e01c6134df90600881811c62ff00ff1691901b63ff00ff001617601081811b63ffff00001691901c61ffff161790565b63ffffffff166134ee916149cc565b8051602b146134fc90612ebe565b61350581613e77565b61350d612f0a565b613516916145cf565b61351f90612f29565b61352881613ec0565b613530612f87565b613539916145cf565b61354290612fa7565b61354b81613f09565b6045909701516001600160e01b0319169160405180916020820161356e91611eb0565b03601f19810182526135809082610393565b60405161358e818093611eb0565b03905a915f916002602094fa15610670576103c8967fd77102e5369b5b1a9db1972cb3de26ee79abc69de5cde41eeaa67fe3939c1c559461363e61363461362e876136218b6105738e6136499b6136449b5f51926135ea6103e5565b956135f36111c3565b9861360960a061360283611ea6565b9201611ea6565b6136116103e5565b916040519b8c9a60208c01612ffd565b613629613070565b614d15565b92614505565b6107ef81516120f7565b91614d7d565b613098565b6136516103b9565b8381526001600160e01b031985166020820152906136776007546040519384938461311b565b0390a16129f8565b6136a1915060203d6020116136a7575b6136998183610393565b810190612b48565b5f6132e0565b503d61368f565b6137176136d8613771926107996136d0600197966136ca6139ee565b83613a98565b909714612080565b926136f96136f46105c56105be875f52600960205260405f2090565b613851565b61370e6105dc855f52600960205260405f2090565b6108d284613892565b61376c61376761375f61372b600354610e84565b61094c61375a61375261373f600454610e84565b93610933895161092d8761092885611f90565b610941611006565b6138db565b61094161109b565b613920565b614e55565b905f808080600154865af1613784613964565b50613821576137f27fabd361bc68da04a386a8de9d0fb3044cca0856cbd86e9e4a63237e015b3e4bb9936137b96008546120f7565b6040805192835260208301949094526001600160a01b0390941692810192909252426060830152608082019290925290819060a0820190565b0390a16103c85f80808061380d60025460018060a01b031690565b600154905af161381b613964565b50613993565b612aab7fa82453ca34121b3ecb910d957824e27c5dc6465315949facd15fb72886490058936137b96008546120f7565b1561385857565b60405162461bcd60e51b81526020600482015260126024820152711d1e125908185b1c9958591e481cdc195b9d60721b6044820152606490fd5b600854600160401b8110156103b457600181016008556008548110156103265760085f527ff3f7a9fe364faab93b216da50a3214154f22a0a2b415b23a84c8169e8b636ee30155565b156138e257565b60405162461bcd60e51b8152602060048201526016602482015275125b9d985b1a590819195c1bdcda5d081cd8dc9a5c1d60521b6044820152606490fd5b1561392757565b60405162461bcd60e51b8152602060048201526015602482015274092dcecc2d8d2c840e6c6e4d2e0e840e6eaccccd2f605b1b6044820152606490fd5b3d1561398e573d90613975826103ca565b916139836040519384610393565b82523d5f602084013e565b606090565b1561399a57565b60405162461bcd60e51b815260206004820152602660248201527f4661696c656420746f2073656e6420746f206661696c6564206465706f736974604482015265081d985d5b1d60d21b6064820152608490fd5b60ff5f5160206151ec5f395f51905f525416613a0657565b63d93c066560e01b5f5260045ffd5b35611832816130d8565b15613a2657565b60405162461bcd60e51b815260206004820152602160248201527f5769746e657373206973206e6f742070726f7065726c7920666f726d617474656044820152601960fa1b6064820152608490fd5b959493612b97926060949288526020880152608060408801526080870191612931565b9190613aa383611ea6565b90613ab060208501613a15565b9360408101613abf81836120c5565b9490966060840195613ad187866120c5565b608087019a91613ae18c896120c5565b949093613af060a08b01611ea6565b96613afa98614f02565b93613b0582846120c5565b3690613b10926117e1565b613b1990614783565b613b2290612ab0565b613b2c90836120c5565b3690613b37926117e1565b613b40906147fb565b613b4990612afc565b613b5390826120c5565b3690613b5e926117e1565b613b6790614a49565b95613b74915086926120c5565b3690613b7f926117e1565b90613b89916148aa565b613b9290613a1f565b602081013590613ba281806120c5565b604080516327fe9a2560e11b8152948594613bc894920135929190879060048701613a75565b6001603160981b0191839103815a93602094fa801561067057613bf1915f9161367f5750612b9c565b9190565b15613bfc57565b60405162461bcd60e51b815260206004820152602260248201527f52656164206f76657272756e20647572696e6720566172496e742070617273696044820152616e6760f01b6064820152608490fd5b613c5581614a49565b613c625f19831415613bf5565b15613cde57613c72600191611f9e565b90613cd9575b613c828183614f73565b905f198214613c945761183292613fdc565b60405162461bcd60e51b815260206004820152601760248201527f42616420566172496e7420696e207363726970745369670000000000000000006044820152606490fd5b613c78565b60405162461bcd60e51b815260206004820152601060248201526f2b34b7103932b0b21037bb32b9393ab760811b6044820152606490fd5b15613d1d57565b60405162461bcd60e51b8152602060048201526013602482015272536c696365206f7574206f6620626f756e647360681b6044820152606490fd5b9190918215613dc9578260010180600111611e4557806001613d8292119081613dbd575b50613d16565b60405192604081850101604052808452602182850391818401930101915b828110613dac57505050565b80518282015f190152602001613da0565b9050825110155f613d7c565b509050604051613dda602082610393565b5f815290565b9190918215613dc957613df68382511015613d16565b60405192604081850101604052808452602082850391818401930101915b828110613e2057505050565b805182820152602001613e14565b90613e3d602283511015613d16565b6040519160608301604052602083528083036042602283019201915b828110613e6557505050565b80518282016001190152602001613e59565b90613e86600983511015613d16565b6040519160418301604052600183528083036029602883019201915b828110613eae57505050565b80518282016007190152602001613ea2565b90613ecf600b83511015613d16565b604051916042830160405260028352808303602b602983019201915b828110613ef757505050565b80518282016008190152602001613eeb565b90613f18602b83511015613d16565b604051916060830160405260208352808303604b602b83019201915b828110613f4057505050565b8051828201600a190152602001613f34565b90613f61604083511015613d16565b6040519160808301604052604083528083036060602083019201915b828110613f8957505050565b805182820152602001613f7d565b90613fa6602483511015613d16565b6040519160648301604052602483528083036044602083019201915b828110613fce57505050565b805182820152602001613fc2565b929190811561404857818101808211611e455780826140029211908161403c5750613d16565b604051936040838601016040528285520190602082850391818401930101915b82811061402e57505050565b805182820152602001614022565b9050855110155f613d7c565b50509050604051613dda602082610393565b6140645f82614fb2565b5f198114614076575f61183292613fdc565b60405162461bcd60e51b815260206004820152601560248201527442616420566172496e7420696e207769746e65737360581b6044820152606490fd5b8051600110156103265760210190565b8051601f101561032657603f0190565b908151811015610326570160200190565b600190611832939260ff60f81b1681520190611eb0565b6040519061410a604083610393565b60078252662a30b82632b0b360c91b6020830152565b9661301e966118329f9e9c989660a89661301e9f9c9561414c9060209f9a61301e906141819f98611eb0565b6001600160e01b0319978816815296166004870152600886015260288501526048840152606883015260888201520190611eb0565b9081520190611eb0565b91949390929360205f6141a061058186613f97565b039060025afa15610670575f519060205f6142136105736105816141f56141e56141e06141d46001546402540be400900490565b6001600160401b031690565b61504c565b60c01b6001600160c01b03191690565b6040519283918783016008916001600160401b0360c01b1681520190565b039060025afa156106705760205f61425c610573610581614241845199604563ffffffff60e01b9101511690565b60405192839187830160049163ffffffff60e01b1681520190565b039060025afa156106705760205f61428561057361058183519960405192839187830190611eb0565b039060025afa15610670575f519361429c8861442f565b607f60f91b6142aa8a614567565b6142b3906140b3565b516001600160f81b0319166040519283926142d29216602084016140e4565b03601f19810182526142e49082610393565b6142ec6140fb565b906142f691614d15565b916142ff6103e5565b956143086103e5565b97614311610675565b9261431a610d9d565b946143236103e5565b9761432c61194b565b996040519d8e9d60208f019d6143419e614120565b03601f19810182526143539082610393565b61435b613070565b9061436591614d15565b9061436f90614505565b805161437a906120f7565b61438391613d58565b61438b612304565b9161439592614d7d565b6103c890613098565b600490611832946143ce6143e9949561301e60405197889563ffffffff60e01b1660208701526024860190611eb0565b9063ffffffff60e01b16815203601b19810184520182610393565b6150c5565b156143f557565b60405162461bcd60e51b815260206004820152601260248201527142616420566172496e7420696e206974656d60701b6044820152606490fd5b9061443982614a49565b6144465f19831415613bf5565b600110156144c95761445790611f9e565b915f925b600184106144915761183292935061448b6144866144798385614c54565b6109285f198314156143ee565b611fac565b91613fdc565b6144c1816144bb6109286144a760019587614c54565b91906144b65f198214156143ee565b611f9e565b90611fba565b93019261445b565b60405162461bcd60e51b81526020600482015260146024820152732bb4ba3732b9b9903932b0b21037bb32b9393ab760611b6044820152606490fd5b61450e81614a49565b90919061451e5f19841415613bf5565b156144c95761452e600192611f9e565b91614562575b61453e8282614c54565b929061454d5f198214156143ee565b8301809311611e455761448b61183293611fac565b614534565b9061457182614a49565b61457e5f19831415613bf5565b600210156144c95761458f90611f9e565b915f925b600284106145b15761183292935061448b6144866144798385614c54565b6145c7816144bb6109286144a760019587614c54565b930192614593565b90815191815183036146735760205b83811115614658576145ef90612114565b8381106145ff5750505050600190565b61461a61460c82846140d3565b516001600160f81b03191690565b61463761462a61460c84876140d3565b6001600160f81b03191690565b6001600160f81b031990911603614650576001016145ef565b505050505f90565b8181015183820151602090920191146145de57505050505f90565b5050505f90565b614685600554610e84565b60208101808211611e455780826146a3921190816146e15750613d16565b604051916060830160405260208352018082036040602083019201915b8281106146d3575050506118329061470d565b8051828201526020016146c0565b9050835110155f613d7c565b5f5160206151cc5f395f51905f52546001600160a01b031633036113d557565b805190811561477d576020821161472d57602001519060200360031b1c90565b60405162461bcd60e51b815260206004820152602260248201527f42797465732063616e6e6f74206265206d6f7265207468616e20333220627974604482015261657360f01b6064820152608490fd5b50505f90565b61478c81614a49565b9190821580156147f1575b6146735760010180600111611e4557915f905b8082106147b8575050511490565b90928251811015614650576147cd8184614f73565b5f1981146147e8578101809111611e455792600101906147aa565b50505050505f90565b505f198114614797565b61480481614a49565b919082158015614860575b6146735760010180600111611e4557915f905b808210614830575050511490565b909282518110156146505761484581846150e2565b5f1981146147e8578101809111611e45579260010190614822565b505f19811461480f565b5f905f5b6001811061487c5750511490565b918151811015614673576148908183614fb2565b5f198114614650578101809111611e45579160010161486e565b811561477d575f915f905b8082106148c3575050511490565b90928251811015614650576148d88184614fb2565b5f1981146147e8578101809111611e455792600101906148b5565b156148fa57565b60405162461bcd60e51b815260206004820152601a60248201527f42616420566172496e7420696e207363726970745075626b65790000000000006044820152606490fd5b61494881614a49565b9091906149585f19841415613bf5565b1561499357600161496b61183293611f9e565b9061498e575b61497b81836150e2565b916149895f198414156148f3565b613fdc565b614971565b60405162461bcd60e51b81526020600482015260116024820152702b37baba103932b0b21037bb32b9393ab760791b6044820152606490fd5b9190916149d881614a49565b6149e55f19831415613bf5565b841015614993576149f590611f9e565b5f935b808510614a10575061183292935061497b81836150e2565b90614a2f81614a21600193866150e2565b906109285f198314156148f3565b940193906149f8565b60ff166001019060ff8211611e4557565b90614a545f83615130565b9160ff8316928315614b8257614a785f610928614a72855194614a38565b60ff1690565b11614b79575f60028403614acf5750614ac8614ab5614aaf61183293614a9d5f611f9e565b01602001516001600160f01b03191690565b60f01c90565b61ff0060ff8260081c169160081b161790565b61ffff1690565b60048403614b395750614b30614b06614b0061183293614aee5f611f9e565b01602001516001600160e01b03191690565b60e01c90565b600881811c62ff00ff1691901b63ff00ff001617601081811b63ffff00001691901c61ffff161790565b63ffffffff1690565b929060088214614b4857509190565b6118329193506141e0614b736141d492614b615f611f9e565b01602001516001600160c01b03191690565b60c01c90565b505f1991505f90565b50614b9c91925061460c5f614b96926140d3565b60f81c90565b9060ff5f921690565b90614bb1600883615130565b9160ff8316928315614c3f57614bd06008610928614a72855194614a38565b11614b79575f60028403614bf65750614ac8614ab5614aaf61183293614a9d6008611f9e565b60048403614c165750614b30614b06614b0061183293614aee6008611f9e565b929060088214614c2557509190565b6118329193506141e0614b736141d492614b616008611f9e565b50614b9c91925061460c6008614b96926140d3565b919091614c618382615130565b9260ff8416938415614d0157614c7f82610928614a72865194614a38565b11614cf6575f60028503614ca45750614ab5614aaf61183293614a9d614ac894611f9e565b60048503614cc35750614b06614b0061183293614aee614b3094611f9e565b93919060088314614cd5575b50509190565b614cee929450614b736141d492614b616141e093611f9e565b915f80614ccf565b505f1992505f919050565b50614b9c92935061460c90614b96926140d3565b5f614d2860209260405191828092611eb0565b039060025afa15610670575f614d5c6020926105818351610573604051938285938985015260408401526060830190611eb0565b039060025afa15610670575f5190565b916141816118329493602093611eb0565b919091815160408114908115614e4a575b5015614e05575f92614db8614da38594613f52565b91610573604051938492602084019687614d6c565b51906102005afa614dc7613964565b81614df9575b81614dd6575090565b600160f81b91506001600160f81b031990614df49061460c906140c3565b161490565b80516020149150614dcd565b60405162461bcd60e51b815260206004820152601860248201527f496e76616c6964207369676e6174757265206c656e67746800000000000000006044820152606490fd5b60419150145f614d8e565b614e60600354610e84565b60148101808211611e45578082614e7e921190816146e15750613d16565b604051916054830160405260148352018082036034602083019201915b828110614ef45750505060208151910151906bffffffffffffffffffffffff1982169160148210614ecf575b505060601c90565b6bffffffffffffffffffffffff1960149290920360031b82901b161690505f80614ec7565b805182820152602001614e9b565b969483869482949a9896939a6040519b8c9b63ffffffff60e01b1660208d015261ffff60f01b1660248c015260268b0137880191602683015f81523701602601915f83528237019063ffffffff60e01b16815203601b1981018252600401614f6a9082610393565b611832906150c5565b90614f7d91615199565b5f198214614fab57816025019182602511611e45570160258101809211611e4557602901809111611e455790565b50505f1990565b90614fbd8183614c54565b92905f1981146150435760010180600111611e45579291905f915b838310614fe6575050505090565b90919293808201808311611e4557614ffe9084614c54565b91905f19811461503757806001019283600111611e45576001910101809211611e455760019161502d91611fba565b9493019190614fd8565b505050505050505f1990565b505050505f1990565b65ffff0000ffff67ffffffffffff000067ff00ff00ff00ff008360081c9360081b169264ff000000ff65ffff0000ff0065ffffffffffff67ffffffffffffff00871666ff00ff00ff00ff85161760101c16951691161760101b1691161767ffffffff0000000063ffffffff8260201c169160201b161790565b5f602091828151910160025afa5060205f818160025afa505f5190565b908151816009019081600911611e455710614fab5760080180600811611e455761510b91614c54565b905f198114614fab57806009019182600911611e45576009910101809111611e455790565b9060ff61513d82846140d3565b5160f81c146151925760fe60ff61515483856140d3565b8160f81b90511660f81c161461518b5761517260ff9160fd936140d3565b8160f81b90511660f81c1614615186575f90565b600290565b5050600490565b5050600890565b908151816025019081602511611e4557106151c25760248101809111611e455761143491614c54565b505f19915f915056fe9016d09d72d40fdae2fd8ceac6b6234c7706214fd39c1cd1e609a0528c199300cd5ed15c6e187e77e9aee88184c21f4f2182ab5827cb3b7e07fbedcd63f03300237e158222e3e6968b72b9db0d8043aacf074ad9f650f0d1606b4d82ee432c00","linkReferences":{}},"methodIdentifiers":{"CODESEP_POS()":"b2497e70","EPOCH()":"a0dc2758","INPUT_INDEX()":"428bcd35","KEY_VERSION()":"1369ac3e","LIGHT_CLIENT()":"e613ae00","PAYOUT_ANCHOR_OUTPUT_AMOUNT()":"2ad93d6f","SAT_TO_WEI()":"fdecdf53","SCHNORR_VERIFIER_PRECOMPILE()":"9a4f308d","SIGHASH_DEFAULT_HASH_TYPE()":"89f40ef9","SIGHASH_SINGLE_ANYONECANPAY_HASH_TYPE()":"6cf7d641","SPEND_TYPE_EXT()":"23dacd29","SPEND_TYPE_NO_EXT()":"092ac5d4","SYSTEM_CALLER()":"d761753e","acceptOwnership()":"79ba5097","batchWithdraw(bytes32[],bytes4[])":"19854623","deposit((bytes4,bytes2,bytes,bytes,bytes,bytes4),(bytes,uint256,uint256),bytes32)":"fb11d7b9","depositAmount()":"419759f5","depositPrefix()":"5b4f894d","depositSuffix()":"8752b6b2","depositTxIds(uint256)":"06592167","failedDepositVault()":"a670e7ed","getAggregatedKey()":"3c918b6c","getWithdrawalCount()":"781952a8","initialize(bytes,bytes,uint256)":"41260137","initialized()":"158ef93e","operator()":"570ca735","optimisticWithdrawAmountSats()":"ad503920","owner()":"8da5cb5b","pause()":"8456cb59","paused()":"5c975abb","pendingOwner()":"e30c3978","processedTxIds(bytes32)":"4379caa5","renounceOwnership()":"715018a6","replaceDeposit((bytes4,bytes2,bytes,bytes,bytes,bytes4),(bytes,uint256,uint256),uint256,bytes32)":"2594f107","replacePrefix()":"6b0b5a94","replaceSuffix()":"f42cb4fc","safeWithdraw((bytes4,bytes2,bytes,bytes,bytes,bytes4),(bytes,uint256,uint256),(bytes4,bytes2,bytes,bytes,bytes,bytes4),bytes,bytes)":"9072f747","setDepositScript(bytes,bytes)":"f8e655d2","setFailedDepositVault(address)":"85fb7151","setOperator(address)":"b3ab15fb","setOptimisticWithdrawAmountSats(uint256)":"6e0918f2","setReplaceScript(bytes,bytes)":"7ec9732a","transferOwnership(address)":"f2fde38b","unpause()":"3f4ba83a","usedWithdrawalUTXO(bytes32)":"656e7dd4","withdraw(bytes32,bytes4)":"8786dba7","withdrawalUTXOs(uint256)":"471ba1e3"},"id":46}