{"abi":[{"type":"function","name":"HASH_LENGTH","inputs":[],"outputs":[{"name":"","type":"uint256","internalType":"uint256"}],"stateMutability":"view"},{"type":"function","name":"SYSTEM_CALLER","inputs":[],"outputs":[{"name":"","type":"address","internalType":"address"}],"stateMutability":"view"},{"type":"function","name":"blockHashes","inputs":[{"name":"","type":"uint256","internalType":"uint256"}],"outputs":[{"name":"","type":"bytes32","internalType":"bytes32"}],"stateMutability":"view"},{"type":"function","name":"blockNumber","inputs":[],"outputs":[{"name":"","type":"uint256","internalType":"uint256"}],"stateMutability":"view"},{"type":"function","name":"coinbaseDepths","inputs":[{"name":"","type":"bytes32","internalType":"bytes32"}],"outputs":[{"name":"","type":"uint256","internalType":"uint256"}],"stateMutability":"view"},{"type":"function","name":"getBlockHash","inputs":[{"name":"_blockNumber","type":"uint256","internalType":"uint256"}],"outputs":[{"name":"","type":"bytes32","internalType":"bytes32"}],"stateMutability":"view"},{"type":"function","name":"getWitnessRootByHash","inputs":[{"name":"_blockHash","type":"bytes32","internalType":"bytes32"}],"outputs":[{"name":"","type":"bytes32","internalType":"bytes32"}],"stateMutability":"view"},{"type":"function","name":"getWitnessRootByNumber","inputs":[{"name":"_blockNumber","type":"uint256","internalType":"uint256"}],"outputs":[{"name":"","type":"bytes32","internalType":"bytes32"}],"stateMutability":"view"},{"type":"function","name":"initializeBlockNumber","inputs":[{"name":"_blockNumber","type":"uint256","internalType":"uint256"}],"outputs":[],"stateMutability":"nonpayable"},{"type":"function","name":"setBlockInfo","inputs":[{"name":"_blockHash","type":"bytes32","internalType":"bytes32"},{"name":"_witnessRoot","type":"bytes32","internalType":"bytes32"},{"name":"_coinbaseDepth","type":"uint256","internalType":"uint256"}],"outputs":[],"stateMutability":"nonpayable"},{"type":"function","name":"verifyInclusion","inputs":[{"name":"_blockNumber","type":"uint256","internalType":"uint256"},{"name":"_wtxId","type":"bytes32","internalType":"bytes32"},{"name":"_proof","type":"bytes","internalType":"bytes"},{"name":"_index","type":"uint256","internalType":"uint256"}],"outputs":[{"name":"","type":"bool","internalType":"bool"}],"stateMutability":"view"},{"type":"function","name":"verifyInclusion","inputs":[{"name":"_blockHash","type":"bytes32","internalType":"bytes32"},{"name":"_wtxId","type":"bytes32","internalType":"bytes32"},{"name":"_proof","type":"bytes","internalType":"bytes"},{"name":"_index","type":"uint256","internalType":"uint256"}],"outputs":[{"name":"","type":"bool","internalType":"bool"}],"stateMutability":"view"},{"type":"function","name":"verifyInclusionByTxId","inputs":[{"name":"_blockNumber","type":"uint256","internalType":"uint256"},{"name":"_txId","type":"bytes32","internalType":"bytes32"},{"name":"_blockHeader","type":"bytes","internalType":"bytes"},{"name":"_proof","type":"bytes","internalType":"bytes"},{"name":"_index","type":"uint256","internalType":"uint256"}],"outputs":[{"name":"","type":"bool","internalType":"bool"}],"stateMutability":"view"},{"type":"function","name":"witnessRoots","inputs":[{"name":"","type":"bytes32","internalType":"bytes32"}],"outputs":[{"name":"","type":"bytes32","internalType":"bytes32"}],"stateMutability":"view"},{"type":"event","name":"BlockInfoAdded","inputs":[{"name":"blockNumber","type":"uint256","indexed":false,"internalType":"uint256"},{"name":"blockHash","type":"bytes32","indexed":false,"internalType":"bytes32"},{"name":"merkleRoot","type":"bytes32","indexed":false,"internalType":"bytes32"},{"name":"coinbaseDepth","type":"uint256","indexed":false,"internalType":"uint256"}],"anonymous":false}],"bytecode":{"object":"0x6080604052348015600e575f5ffd5b50610a048061001c5f395ff3fe608060405234801561000f575f5ffd5b50600436106100e5575f3560e01c8063abb068d611610088578063d269a03e11610063578063d269a03e146101ff578063d5ba11fa14610212578063d761753e14610225578063ee82ac5e14610258575f5ffd5b8063abb068d6146101c5578063b66c84a1146101e4578063cd4cc08f146101ec575f5ffd5b80634ffd344a116100c35780634ffd344a1461014f57806357e871e71461017257806361b207e21461017a578063a91d8b3d146101a6575f5ffd5b80630466efc4146100e95780631f5783331461011b57806334cdf78d14610130575b5f5ffd5b6101086100f7366004610842565b5f9081526002602052604090205490565b6040519081526020015b60405180910390f35b61012e610129366004610842565b610277565b005b61010861013e366004610842565b60016020525f908152604090205481565b61016261015d36600461089e565b610328565b6040519015158152602001610112565b6101085f5481565b610108610188366004610842565b5f908152600160209081526040808320548352600290915290205490565b6101086101b4366004610842565b60026020525f908152604090205481565b6101086101d3366004610842565b60036020525f908152604090205481565b610108602081565b6101626101fa3660046108f4565b61034d565b61016261020d36600461089e565b6104d4565b61012e61022036600461097e565b6104e2565b61024073deaddeaddeaddeaddeaddeaddeaddeaddeaddead81565b6040516001600160a01b039091168152602001610112565b610108610266366004610842565b5f9081526001602052604090205490565b3373deaddeaddeaddeaddeaddeaddeaddeaddeaddead146102df5760405162461bcd60e51b815260206004820152601f60248201527f63616c6c6572206973206e6f74207468652073797374656d2063616c6c65720060448201526064015b60405180910390fd5b5f54156103245760405162461bcd60e51b8152602060048201526013602482015272105b1c9958591e481a5b9a5d1a585b1a5e9959606a1b60448201526064016102d6565b5f55565b5f858152600160205260408120546103439086868686610614565b9695505050505050565b5f5f61038d87878080601f0160208091040260200160405190810160405280939291908181526020018383808284375f920191909152506106cf92505050565b5f8a81526001602052604090205490915081146103e35760405162461bcd60e51b815260206004820152601460248201527324b73b30b634b210313637b1b5903432b0b232b960611b60448201526064016102d6565b5f818152600360209081526040909120546103fe91906109bb565b84146104435760405162461bcd60e51b8152602060048201526014602482015273092dcecc2d8d2c840e0e4dedecc40d8cadccee8d60631b60448201526064016102d6565b5f61048288888080601f0160208091040260200160405190810160405280939291908181526020018383808284375f920191909152506106f192505050565b90506104c6898288888080601f0160208091040260200160405190810160405280939291908181526020018383808284375f920191909152508a92506106ff915050565b9a9950505050505050505050565b5f6103438686868686610614565b3373deaddeaddeaddeaddeaddeaddeaddeaddeaddead146105455760405162461bcd60e51b815260206004820152601f60248201527f63616c6c6572206973206e6f74207468652073797374656d2063616c6c65720060448201526064016102d6565b5f80549081900361058a5760405162461bcd60e51b815260206004820152600f60248201526e139bdd081a5b9a5d1a585b1a5e9959608a1b60448201526064016102d6565b5f8181526001602081905260409091208590556105a89082906109d2565b5f90815584815260026020908152604080832086905560038252918290208490558151838152908101869052908101849052606081018390527f4975e407627f5c539dcd7c961396db91c315f4421c3b0023ba1bcf2e9e9b41f19060800160405180910390a150505050565b5f85815260036020908152604082205461062e91906109bb565b83146106735760405162461bcd60e51b8152602060048201526014602482015273092dcecc2d8d2c840e0e4dedecc40d8cadccee8d60631b60448201526064016102d6565b5f86815260026020908152604091829020548251601f8701839004830281018301909352858352916106c4918891849189908990819084018382808284375f920191909152508992506106ff915050565b979650505050505050565b5f60205f83516020850160025afa5060205f60205f60025afa50505f51919050565b60448101515f905b92915050565b5f838514801561070d575081155b801561071857508251155b1561072557506001610734565b6107318584868561073c565b90505b949350505050565b5f6020845161074b91906109e5565b1561075757505f610734565b83515f0361076657505f610734565b81855f5b86518110156107ec5761077e6002846109e5565b6001036107ba575f6107938883016020015190565b90508281036107a8575f945050505050610734565b6107b28184610809565b9250506107d3565b6107d0826107cb8984016020015190565b610809565b91505b60019290921c916107e56020826109d2565b905061076a565b5081156107fd575f92505050610734565b90931495945050505050565b5f610814838361081b565b9392505050565b5f825f528160205260205f60405f60025afa5060205f60205f60025afa50505f5192915050565b5f60208284031215610852575f5ffd5b5035919050565b5f5f83601f840112610869575f5ffd5b50813567ffffffffffffffff811115610880575f5ffd5b602083019150836020828501011115610897575f5ffd5b9250929050565b5f5f5f5f5f608086880312156108b2575f5ffd5b8535945060208601359350604086013567ffffffffffffffff8111156108d6575f5ffd5b6108e288828901610859565b96999598509660600135949350505050565b5f5f5f5f5f5f5f60a0888a03121561090a575f5ffd5b8735965060208801359550604088013567ffffffffffffffff81111561092e575f5ffd5b61093a8a828b01610859565b909650945050606088013567ffffffffffffffff811115610959575f5ffd5b6109658a828b01610859565b989b979a50959894979596608090950135949350505050565b5f5f5f60608486031215610990575f5ffd5b505081359360208301359350604090920135919050565b634e487b7160e01b5f52601160045260245ffd5b80820281158282048414176106f9576106f96109a7565b808201808211156106f9576106f96109a7565b5f826109ff57634e487b7160e01b5f52601260045260245ffd5b50069056","linkReferences":{}},"methodIdentifiers":{"HASH_LENGTH()":"b66c84a1","SYSTEM_CALLER()":"d761753e","blockHashes(uint256)":"34cdf78d","blockNumber()":"57e871e7","coinbaseDepths(bytes32)":"abb068d6","getBlockHash(uint256)":"ee82ac5e","getWitnessRootByHash(bytes32)":"0466efc4","getWitnessRootByNumber(uint256)":"61b207e2","initializeBlockNumber(uint256)":"1f578333","setBlockInfo(bytes32,bytes32,uint256)":"d5ba11fa","verifyInclusion(bytes32,bytes32,bytes,uint256)":"d269a03e","verifyInclusion(uint256,bytes32,bytes,uint256)":"4ffd344a","verifyInclusionByTxId(uint256,bytes32,bytes,bytes,uint256)":"cd4cc08f","witnessRoots(bytes32)":"a91d8b3d"},"id":47}